:020000040800F2
:1000000030AB0120C1010008C9AF0008C59200084B
:10001000C5AF0008A91C00087D2C010800000000E5
:1000200000000000000000000000000019E30008CC
:10003000812200080000000011B4000871E50008EA
:10004000DB010008DB010008DB010008DB01000820
:10005000DB010008DB010008DB010008DB01000810
:10006000DB010008DB010008DB010008DB01000800
:10007000DB010008DB010008DB010008DB010008F0
:10008000DB010008DB010008DB010008DB010008E0
:10009000DB010008DB010008DB010008DB010008D0
:1000A000DB010008DB010008DB010008DB010008C0
:1000B000DB010008DB010008DB010008DB010008B0
:1000C000DB010008DB010008DB010008DB010008A0
:1000D000DB01000889EC000899EC0008DB0100084E
:1000E0003D250008DB010008DB010008DB010008FA
:1000F000DB010008DB010008DB010008DB01000870
:10010000DB010008F1D20008DB010008DB01000878
:10011000DB010008DB010008DB010008DB0100084F
:10012000DB010008DB010008DB010008A520000856
:10013000DB010008DB010008DB010008DB0100082F
:10014000DB010008DB010008DB010008DB0100081F
:10015000DB010008B5200008DB010008A9EC00085D
:10016000DB010008DB010008DB010008DB010008FF
:10017000DB0100084DB00008DB01000800000000B2
:10018000DB010008DB010008DB010008DB010008DF
:10019000D1DD0008DB010008DB010008DB010008FD
:1001A000DB010008DB010008DB010008DFF80CD0F0
:1001B00000F09CFF00480047017C010830AB0120A3
:1001C0000648804706480047FEE7FEE7FEE7FEE7F1
:1001D000FEE7FEE7FEE7FEE7FEE7FEE74DE6000886
:1001E000AD0100082DE9F05F0546002092469B46D0
:1001F00088460646814640241BE02846414647463D
:10020000224600F0ABF953465A46C01A914110D32A
:1002100011461846224600F092F92D1A67EB0108A4
:100220004F4622460120002100F089F917EB000912
:100230004E41201EA4F10104DFDC484631462A4627
:100240004346BDE8F09F40EA01039B0703D009E065
:1002500008C9121F08C0042AFAD203E011F8013BB2
:1002600000F8013B521EF9D27047D2B201E000F80B
:10027000012B491EFBD270470022F6E710B513464A
:100280000A4604461946FFF7F0FF204610BD30B578
:1002900005462A460B4612F8010B13F8014B08B12C
:1002A000A042F8D01CB1002802D06D1CF1E728460E
:1002B00030BD10B5044604E00B7800F8013B03B1F3
:1002C000491C521EF8D2204610BD421C10F8011BDA
:1002D0000029FBD1801A704710B5002200E0521CA3
:1002E000835C8C5CA34201D1002BF8D1D8B2E1B27F
:1002F000401A10BD10B5044600E0401C0378002BE6
:10030000FBD100E0401C521E04D311F8013B0370E6
:10031000002BF7D100210170204610BD30B50546F5
:100320000020034600E05B1C934205D2EC5CC85CF5
:10033000201A01D1002CF6D130BD000070B50F4D50
:1003400000B92868002412E00A4602E09E4203D069
:10035000521C1378002BF9D1DAB2224305D02BB10D
:1003600024B1002100F8011B04E00446401C06787B
:10037000002EE9D12860204670BD0000000000205A
:1003800030B50546002008E00A4602E0A34207D047
:10039000521C1378002BF9D1401C2C5C002CF3D19B
:1003A00030BD00000FB400B58DB010A909900B90BE
:1003B00000914FF0FF300A9000200C900548069005
:1003C000054807906A4609A80F9900F04FFC0DB048
:1003D0005DF814FB890C0008A70C000870B50646F0
:1003E00018F0BAF9046805460A220021304600F0E8
:1003F0006BFC2C6070BD2DE9FE4F81EA030404F014
:10040000004421F0004100944FF0000B23F0004322
:1004100050EA01045ED052EA03045BD0C3F30A54ED
:10042000C1F30A552C44A4F2F3340194A0FB025406
:10043000C1F3130141F48011C3F3130343F4801398
:1004400001FB024400FB034E840A970A44EA8154EC
:1004500047EA8357A4FB076802958D0A05FB0785C9
:100460004FEA932C04FB0C542705029D4FEA0658D3
:1004700047EA1637B5EB08056EEB070C870E920EB0
:1004800047EA811742EA8312A7FB0201B6EB0B0190
:1004900064EB00042B0D43EA0C335E1844EB1C5054
:1004A000DA465146E7FB0201C5F313044FEA0B336A
:1004B00043EA14534FEA0432019C43EA0603A4F1D1
:1004C0000C040294009CCDE900B400F07BFC03B066
:1004D000BDE8F08F00200146F9E701F0004330B499
:1004E00021F0004150EA010206D00A0DA2F5607227
:1004F000C1F31301002A02DC30BC00207047440F16
:1005000044EAC104C100E01830BC00EBC25000F066
:1005100013BC30B50B46014600202022012409E01F
:1005200021FA02F59D4205D303FA02F5491B04FAAC
:1005300002F52844151EA2F10102F1DC30BD202A8B
:1005400004DB203A00FA02F1002070479140C2F12A
:10055000200320FA03F3194390407047202A04DB5C
:10056000203A21FA02F00021704721FA02F3D0402C
:10057000C2F1200291400843194670472DE9FF4F10
:100580001C4681B00021D4E9016791464FF0FF3548
:100590008A468846A1696D1C02988847216A83466D
:1005A00088470028F6D1BBF1FF3F0CD026F4C06687
:1005B000002F1ADD700615D5BBF12B0F0AD0BBF149
:1005C0002D0F0FD104E04FF0FF3005B0BDE8F08FE4
:1005D00046F48066A1696D1C029888477F1E834699
:1005E000002F02DDBBF1300F03D0B9F1000F2AD08C
:1005F00025E0A1696D1C46F400767F1E02988847AD
:100600008346002F05DDBBF1780F06D0BBF1580FF4
:1006100003D0B9F1000F10D011E0B9F1000F02D0F2
:10062000B9F1100F0BD1A1696D1C26F400767F1E65
:10063000029888478346102000E0082081464FEA50
:10064000E970009017E00A20F8E74346AAFB092862
:1006500003FB0980DDF800C07F1E0AFB0C0112EBD2
:100660000B0A41EBEB78A16946F4007605F1010530
:10067000029888478346002F06DD4946584600F019
:1006800066FD5FEA000BE0D5E16902988847B00596
:1006900002D46FF0010098E7F00718D1700610D56A
:1006A0007005514605D50023D1EB030163EB080229
:1006B00000E042462068031D23600068C0E9001284
:1006C00005E02068011D21600068C0E900A82846F7
:1006D0007BE72DE9FF5F1D464FF0FF3BD5E9014663
:1006E00091465F464FF00008A9697F1C0198884732
:1006F000296A824688470028F6D1BAF1FF3F0CD01C
:1007000024F4C064002E19DD600614D5BAF12B0F55
:1007100009D0BAF12D0F0ED103E0584604B0BDE860
:10072000F09F44F48064A9697F1C01988847761E75
:100730008246002E02DDBAF1300F03D0B9F1000F6E
:1007400026D032E0A969761E44F400747F1C01981B
:1007500088478246002E05DDBAF1780F06D0BAF13F
:10076000580F03D0B9F1000F10D01EE0B9F1000FFF
:1007700002D0B9F1100F18D1A969761E24F40074C3
:100780007F1C019888478246102002E0082000E084
:100790000A20814609E008FB0908A969761E44F48D
:1007A00000747F1C019888478246002E05DD49466B
:1007B000504600F0CCFC0028EDDAE9690198884742
:1007C000A00502D46FF00100A8E7E00725D160067C
:1007D00013D5600502D5C8F1000000E04046296845
:1007E0000A1D2A600968220501D5087015E0220754
:1007F00001D5088011E008600FE02868011D29601C
:100800000068210502D580F8008006E0210702D5A6
:10081000A0F8008001E0C0F8008038467EE72DE9AE
:10082000FF5FD2E901A74FF000089169994614468D
:10083000DDF838B0464601988847054659EA0B006E
:1008400005D009E0A169761C019888470546216A10
:10085000284688470028F5D1681C03D05FEACA7093
:1008600005D015E04FF0FF3004B0BDE8F09F2068E0
:10087000011D2160D0F800800AE05FEACA7001D152
:1008800008F8015BA169761C7F1E01988847054620
:10089000002F1ADD681C18D0B9F1000F0DD0E81731
:1008A00005EBD060421120F01F0059F822102A1ADF
:1008B000012090400142E0D107E0BBF1000FDCD104
:1008C000216A284688470028D7D0E16901988847DF
:1008D000BBF1000F07D1002E05DD5FEACA7002D11F
:1008E000002188F80010A068B84203DDBBF1000FBA
:1008F00003D017B16FF00100B6E73046B4E700004F
:100900002DE9FF4F087883B09946FF2805D0491C90
:100910002D2804D00024002008E000200BE0012452
:10092000F9E700EB800003EB4000491C0B78FF2B3C
:10093000F7D104B1404200230293147819461D46B2
:100940002D2C01D02B2C04D1521C2D2C13D0002483
:100950000294AA461478FF2C0FD00A25A3FB057831
:1009600001FB05814FF0000C03FB0C11521CE31935
:100970004AEB0101EEE70124EAE7814453EA010072
:1009800002D019F5C87F06DA03980021C0E90011EA
:1009900007B0BDE8F08F0025AE4E2F46DFF8B882D5
:1009A000184600F0C8FDCDE90001B9F1000002DAF7
:1009B000C9F1000400E004460023A74A1AEB030B28
:1009C00042EB045A12E0E00707D02A463346384685
:1009D0004146FFF710FD074688462A463346104633
:1009E0001946FFF708FD05460E466410002CEAD1B3
:1009F000DDE90001B9F1000F5A46534606DA00F06E
:100A0000D6FA3A46434600F0D2FA05E0FFF7F3FC87
:100A10003A464346FFF7EFFC029A0AB181F00041E3
:100A2000039AC2E90001B3E72DE9FF4F1F468DB0DD
:100A3000D7E901464FF0FF382E2045464FF0000918
:100A40000B90B9696D1C0E988847396A82468847B1
:100A50000028F6D1BAF1FF3F0AD024F4D064002E6A
:100A600011DDBAF12B0F08D0BAF12D0F0BD102E036
:100A7000404611B08DE744F48064B9696D1C0E984E
:100A800088478246761E6946600501D52D2000E024
:100A90002B208DF8000001F1010B0DF1200809E079
:100AA000B9696D1C0E98884782460F9844F400740B
:100AB000761E0560002E02DDBAF1300FF0D00B99E2
:100AC0008A453ED144F0800406E00F99681CA9F1E4
:100AD000010944F400740860B9696D1C761E0E9813
:100AE000884782463028F0D02BE00B998A4505D103
:100AF000200603D444F08004761E18E0504617F018
:100B000001FF08B30DF11301761E44F400748B4508
:100B100008D2AAF130000BF8010B200607D5A9F185
:100B2000010003E0200602D409F101008146A0057E
:100B300002D50F99681C0860B9696D1C0E9888472A
:100B40008246002ED1DC53E0002E51DDBAF1650F54
:100B500002D0BAF1450F4BD1A00549D5B9696D1C3A
:100B600024F44074761E0E9888478246002E0CDDD1
:100B70002B2804D0BAF12D0F07D144F48074B96941
:100B80006D1C0E9888478246761EE00501D52D2102
:100B900000E02B2108F8011BCDF82C8021E00DF19D
:100BA0002901761E44F4007488450CD2AAF1300065
:100BB00010F0FF0088F8000002D10B99884509D990
:100BC00008F1010806E0E00501D5244801E042F201
:100BD0000F708146B9696D1C0E98884782460F9840
:100BE0000560002E04DD504617F08CFE0028D6D19B
:100BF000F9690E988847FF208BF8000088F80000FC
:100C00000020069007904B466A4608A906A8FFF701
:100C100077FEA00502D46FF001002AE714F0240F3C
:100C20000AD0E00714D1DDE906123868031D3B60E5
:100C30000068C0E900120BE0DDE90601FFF74DFC9A
:100C40000146E00704D13868021D3A60006801607F
:100C500028460EE7000014400000F03FF1D8FFFFE7
:100C6000026811441378016018467047D160044946
:100C700051610449116200211161114600F076BAF8
:100C8000610C00083D110008426842B1016811F88A
:100C9000013B23B1521EC0E90012184670470121E2
:100CA000C160881E704742685AB1C368016843B981
:100CB00083688B4205D0491E521CC0E900120020F7
:100CC00070474FF0FF3070472DE9F04791460F46CF
:100CD00080460446002614F8015B2DB100F02AFA84
:100CE0000068405DC007F6D12B2D02D02D2D18D005
:100CF000641E4A463946204600F0CEFB27B13968CB
:100D0000A14201D1C7F8008071054FF002040BD554
:100D10004042002803DD17F01FFD0460A007BDE876
:100D2000F08746F48066E4E70028F8DA17F014FD4F
:100D300004606FF00040F2E70029A8BF7047401C34
:100D4000490008BF20F00100704710B4B0FA80FCE1
:100D500000FA0CF050EA010404BF10BC704749B11E
:100D6000CCF1200421FA04F411FA0CF118BF01218E
:100D700021430843A3EB0C01CB1D4FEA00614FEA6E
:100D8000102042BF002010BC704700EBC35010443D
:100D90000029A4BF10BC7047401C490008BF20F0C8
:100DA000010010BC704710B5141E73F1000408DA7E
:100DB000401C41F1000192185B411A4301D120F01F
:100DC000010010BD2DE9F04D92469B4611B1B1FADC
:100DD00081F202E0B0FA80F220329046FFF7AFFBDA
:100DE00004460F4640EA0A0041EA0B0153465A46C0
:100DF000084313D0114653EA010019D0C8F140024C
:100E00005046FFF7ABFB05460E4650465946424654
:100E1000FFF795FB084305D0012004E02046394642
:100E2000BDE8F08D0020054346EAE0762C433743C9
:100E30000A986305E40AA0EB08000022FD0A44EAD0
:100E400047540A3002D500200146E9E70105101990
:100E50006941DDE9084500196941BDE8F04DA2E7A7
:100E60002DE9FE4F804681EA0300C00F0C4600903A
:100E700021F0004123F00045B8EB0200A94105D262
:100E80004046214690461C460B46024623F0004051
:100E9000104347D0270DC7F30A00C3F30A5102904D
:100EA000401A019040286BDAC3F3130040F4801B12
:100EB0000098924620B10023D2EB030A63EB0B0BA0
:100EC00001985946C0F140025046FFF738FB0646EC
:100ED0000D4650465946019A00F01AF910EB0800E9
:100EE0006141002487EA115284EAE7731A4340D033
:100EF000009A62B3019A012A4FEA075215DC001BDF
:100F000061EB02014FF0004202EA0752CDE90042D4
:100F1000001C41F5801132462B46FFF753FF03B00A
:100F2000BDE8F08F40462146F9E7001B61EB020166
:100F3000001C41F5801300185B412018A2F5001732
:100F400047EB030140EAD570B6196D4111E06D0819
:100F50004FEA360645EAC0754FEA0752001B61EBBF
:100F60000201001C41F5801149084FEA30000019C8
:100F7000514132462B4603B0BDE8F04FFFF713BF97
:100F80000098012240000023D0EB020263EBE073E3
:100F9000009821464FEAE074B8EB000061EB0401D1
:100FA000E9E783F000435BE781F0004158E72DE972
:100FB000F04D81EA030404F0004B21F00045144693
:100FC0004FF0000A23F0004150EA050220D054EA15
:100FD00001021DD0C5F30A570246C5F31303C1F33E
:100FE0001300C1F30A5640F4801543F48013A7EBB5
:100FF0000608101BD64608F2FD3873EB050002D335
:1010000008F1010801E092185B41B8F1000F03DA22
:1010100000200146BDE8F08D00204FF48011064607
:1010200084460EE0171B73EB050705D3121B63EB19
:10103000050306434CEA010C49084FEA30009218B8
:101040005B4150EA0107EDD152EA030012D082EA77
:10105000040083EA0501084305D0101BAB4106D20A
:101060000122002306E000224FF0004302E06FF06F
:10107000010253101AEB06004CEB085110EB0A006A
:1010800041EB0B01BDE8F04DFFF78DBEC1F30A52F5
:10109000C1F3130140F2FF3341F480119A4202DAA6
:1010A00000200146704740F233439A42A2F2334295
:1010B00002DC5242FFF752BAFFF741BA30B5041EC4
:1010C00071F1000404DB4FF00044404264EB010185
:1010D000141E73F1000405DB1C464FF0004352421E
:1010E00063EB0403994208BF904230BD064C074DA4
:1010F00006E0E06840F0010394E8070098471034E8
:10110000AC42F6D3FFF756F8F4490408144A040831
:10111000202A06DBCB17203A41FA02F043EAE073BB
:1011200006E041FA02F3D040C2F1200291400843A8
:101130001946704700487047DC90010810B5044616
:10114000FFF7F8FF0068005D00F0010010BD3A28CD
:1011500000D2303820F02002412A01D3A2F137001A
:10116000884201D34FF0FF30704700002DE9F34F64
:101170008BB04FF0000801F10C000C464FF0010B52
:1011800046460DF1080A01906269012101989047D5
:10119000051E2DD0252D2CD0216A8847C0B162694B
:1011A000012101989047216A88470028F7D1411E04
:1011B00062690198904700E0761CA1690B98884706
:1011C000216A88470028F7D1E1690B988847DBE757
:1011D000A1690B9888470746A84201D1761CD3E73E
:1011E000E1690B9888477F1C02D1B8F1000F6FD0DE
:1011F00046E1002762693D463946019890472A2812
:1012000004D162690121019890470125DFF8849299
:101210006269012101989047A0F130010A290AD2A0
:101220004F45E5DC07EB870100EB4107303FDFD49A
:1012300045F01005ECE7E90601D46FF000476C2893
:101240000AD04C2814D0682815D06A280DD07428EC
:101250001CD07A281AD01DE06269012101989047BC
:101260006C2802D045F0040514E045F002050DE0BD
:1012700045F020050AE0626901210198904768283D
:1012800002D045F0080505E045F4006562690121DA
:1012900001989047C4E9015765283DD019DC5828CA
:1012A0007AD00CDC452837D004DC252826D041280C
:1012B00031D131E046282FD047282CD12CE05B28B3
:1012C00077D0612828D063287CD0642823D15AE0C5
:1012D000D0E06F2848D008DC66281DD067281BD0D6
:1012E000692821D06E2816D127E0702845D07328B0
:1012F00068D0752847D078280DD14DE0A1690B98AA
:101300008847054625283FF469AFE1690B9888476F
:101310006D1C3FF46AAFB3E023466A466FF00100EC
:101320000B99FFF781FB9EE045F040006060A80745
:1013300023464FF0000236D43EE0E8077FF447AF83
:101340002068011D21600068290501D506701BE792
:10135000290701D5068017E7A90703D5F117C0E9CA
:10136000006111E706600FE745F040006060A807E4
:1013700023464FF0080216D41EE040F60E0125EA7F
:101380000100606016E045F040006060A807234659
:101390004FF00A0207D40FE045F040006060A80754
:1013A00008D5234610226FF001000B99FFF7E6F8ED
:1013B00059E007E0234610226FF001000B99FFF778
:1013C00088F950E04FF000094F464B46632802D0A1
:1013D0005B2806D040E0E80601D40120A060012788
:1013E0003AE062690121019890475E2805D14FF0EB
:1013F00001096269494601989047216939B900217C
:101400000A46534643F82120491C0829FADBB0B3A9
:10141000216969B9C11700EBD16253110AEB83014D
:1014200022F01F02821A01200B68904003430B60D8
:1014300062690121019890475D28E8D1B9F1000F58
:1014400009D00020514651F82020D24341F82020F5
:10145000401C0828F7DB02AB224600976FF0010022
:101460000B99FFF7DCF900280CDA401C08D1BBF11E
:10147000000F05D04FF0FF300DB0BDE8F08FFFE753
:101480004046F9E7E90701D108F1010806444FF0A9
:10149000000B79E6CCCCCC0C2DE9F05F82460078CD
:1014A000002715468B460AF10104B946302801D0C1
:1014B0009DB113E014F8010B0127782803D05828B8
:1014C00001D045B10AE00DB1102D07D1002710253C
:1014D00014F8010B02E0082500E00A250026B046BA
:1014E0000EE005FB080005FB06F1012701EB1046A5
:1014F0001FFA80F8B6F5803F00D3B94614F8010B07
:101500002946FFF724FE0028EBDABBF1000F05D0D7
:101510000FB1641E00E05446CBF80040B9F1000F53
:1015200006D017F019F902210160C81EBDE8F09F2E
:1015300048EA0640FAE70EB540F233420292002232
:10154000CDE900221346FFF73DFC03B000BD30B5E6
:101550008C1810F8012B12F00F0301D110F8013B89
:10156000120906D110F8012B03E010F8015B01F815
:10157000015B5B1EF9D101E001F8013B521EFBD17A
:10158000A142E6D3002030BD80B59AB00146189044
:1015900000208DF85C00169042228DF858208DF8BE
:1015A000590048228DF85A20189A536812891590CC
:1015B000184614911146159A02F076FA18980068A8
:1015C00016A903224FF47A7306F010FE00280ED0FD
:1015D000FFE7189841680089012213900846139983
:1015E000129202F061FA12988DF86700AEE0189836
:1015F000416800890122119008461199109202F069
:1016000053FA022001F074FE60208DF858001898FB
:101610004168008900220F9008460F9902F044FAB1
:101620001898006816A94FF47A73109A06F0DEFD38
:1016300000280ED0FFE718984168008901220E901B
:1016400008460E990D9202F02FFA0D988DF867005A
:101650007CE018984168008901220C9008460C999A
:1016600002F022FA11F00CFB42218DF858100021F3
:101670008DF8591048228DF85A20189AD2F804E0B3
:1016800012890B9070460A9111460A9A02F00CFAE0
:101690001898006816A903224FF47A7306F0A6FD85
:1016A00000280ED0FFE718984168008901220990B0
:1016B00008460999089202F0F7F908988DF8670032
:1016C00044E018984168008901220790084607996C
:1016D000069202F0E9F9022001F00AFE61208DF87D
:1016E000580018984168008900220590084605991D
:1016F00002F0DAF91898006816A94FF47A73069A7E
:1017000006F074FD00280ED0FFE7189841680089A4
:101710000122049008460499039202F0C5F9039847
:101720008DF8670012E01898416800890122029044
:101730000846029902F0B8F911F0A2FA189901903E
:10174000084600F0EBF98DF86700FFE79DF86700A9
:101750001AB080BD80B58EB001460D900D9849F24B
:10176000B832C2F2010202600D9841F20002C4F2E6
:10177000020242600D984FF4006202810D9840F61B
:101780000042C4F20202C2600D984FF480530382FB
:101790000D9842610D984FF40053038300200C9084
:1017A0000B900A90099008904FF48043089301230E
:1017B00009930A900B900DF1200C079010460691AA
:1017C00061460593CDF810C001F036FF0D984168D1
:1017D0000089039008460399059A02F065F90D986F
:1017E000008B08900598099007990A910B910D9A22
:1017F0005069049901F020FF0D984169008B029017
:1018000008460299079A02F04FF90D98008A08904D
:101810004FF40410099007980A900D99C86804992C
:1018200001F00AFF282001900799079A03F092FB24
:10183000019803F083FB07980EB080BD80B58AB095
:101840000A460346089007910592049311F018FA8E
:10185000002804D0FFE701208DF8270033E00020A6
:10186000069008994A68098903901046039A02F085
:101870001BF90898006806A904224FF47A7306F051
:101880006FFB00280ED0FFE708984168008901220D
:10189000029008460299019202F006F901988DF82B
:1018A000270010E00898416800890122009008464E
:1018B000009902F0F9F8069800BA0799086000202C
:1018C0008DF82700FFE79DF827000AB080BD0000D3
:1018D00080B586B00146059040F60040C4F2020093
:1018E0004FF48042002304900391114602921A465D
:1018F00002F0DAF80120019001F0FAFC0498029954
:10190000019A02F0D1F8019801F0F2FC11F0B8F957
:1019100006B080BD80B584B0014602900298019166
:10192000FFF718FF002804D0FFE701208DF80F0013
:1019300017E00298FFF7CCFF002804D0FFE7012052
:101940008DF80F000DE00298FFF71EFE002804D06E
:10195000FFE701208DF80F0003E000208DF80F0055
:10196000FFE79DF80F0004B080BD000080B586B091
:101970000020059048F65830C2F2010005A9FFF793
:101980005DFF002801D0FFE7C6E041F2D000C2F2BF
:10199000000047F21871C0F20101415C47F608529D
:1019A00011FB02000490049847F604514058B0F52A
:1019B000FA5FC0F09A80FFE704984FF4FA410122E1
:1019C000425440F66860C2F20000016801310160D3
:1019D00041F2D000C2F2000047F21871C0F20101DA
:1019E000405C01304AF6AB21CAF6AA21A0FB0112E5
:1019F000520802EB4202801A8DF80F009DF80F008A
:101A00008DF80E0000208DF80D000291FFE79DF883
:101A10000F0041F2D001C2F2000147F6085210FB5C
:101A200002104FF4FA41405C10F0010F15D1FFE7AE
:101A30009DF80F0041F2D001C2F2000147F60852B2
:101A400010FB021047F60151405C10F0010F04D169
:101A5000FFE701208DF80D0017E09DF80F00013021
:101A60004AF6AB21CAF6AA21A0FB0112520802EBEA
:101A70004202801A8DF80F000191FFE79DF80F00D8
:101A80009DF80E108842C2D1FFE79DF80D00002896
:101A900013D1FFE741F2D000C2F2000047F22071FB
:101AA000C0F2010142580132425040F66C60C2F26D
:101AB00000000168013101602EE09DF80F0041F245
:101AC000D001C2F2000147F21872C0F2010288543C
:101AD0009DF80F0047F6085210FB0210049004987E
:101AE00047F6045100224250FFE70598049947F653
:101AF00004528B5841F823000498815801318150D9
:101B000041F2D000C2F2000047F21C71C0F20101A4
:101B1000425801324250FFE706B080BD80B58CB01C
:101B200001460A9000208DF82400089040228DF88C
:101B3000202002228DF821208DF8220040F21C1076
:101B4000C2F20000008802467D28079106920ED05E
:101B5000FFE70698FA280ED0FFE70698B0F57A7FDF
:101B60000DD0FFE70698B0F5FA6F0CD00FE0022019
:101B70008DF823001BE00A208DF8230017E01A20BF
:101B80008DF8230013E022208DF823000FE022209F
:101B90008DF8230040F21C10C2F2000001884FF2C1
:101BA0002710C0F6020016F0AFFD0590FFE70F20EA
:101BB0008DF824000A9841680089002204900846A4
:101BC000049901F071FF0A98006808A905224FF4F2
:101BD0007A7306F00BFB00280ED0FFE70A984168E5
:101BE00000890122039008460399029201F05CFFEC
:101BF00002988DF82F000CE00A98416800890122B4
:101C000001900846019901F04FFF00208DF82F0048
:101C1000FFE79DF82F000CB080BD000080B582B0BA
:101C200041F2D000C2F2000047F22871C0F2010177
:101C3000FEF722FB00200190FFE70198022822DC3A
:101C4000FFE7019841F2D001C2F2000147F60852C5
:101C500000FB02104FF4FA434FF0000C00F803C0F1
:101C6000019800FB021047F6015300F803C00198E9
:101C700000FB021047F6045140F801C0FFE701984D
:101C800001300190D9E741F2D000C2F2000047F2E2
:101C90001871C0F201010022425447F21971C0F2DA
:101CA0000101425402B080BDFFE7FEE780B58EB06F
:101CB00049F29830C2F2010009A90022069005926B
:101CC00005F09EFC08A9069A04901046059A05F0B6
:101CD0004BFC40F21911C2F2000109789DF8242052
:101CE000914203900AD1FFE740F21810C2F20000BF
:101CF00000789DF82210884241D0FFE74FF28440DF
:101D0000C0F6020016F000FD02900CF025FB002842
:101D100008D1FFE74FF2F220C0F6020016F0F4FC03
:101D200001902CE000F014FC07900798002808D1DF
:101D3000FFE74FF20B40C0F6020016F0E5FC009002
:101D40001DE0079949F2F040C2F201004FF40C7215
:101D5000FEF779FA40F69860C2F2000001210170A6
:101D60009DF8240040F21911C2F2000108709DF89C
:101D7000220040F21811C2F200010870FFE70EB015
:101D800080BD000080B5A2B04FF23900C0F602005D
:101D900020A921AA12F0D0FC8DF87B009DF87B00D1
:101DA00000280AD0FFE79DF87B104EF6D020C0F641
:101DB000020016F0A9FC0D90E9E021988069023834
:101DC0001F902198408919901F981999A0FB010133
:101DD000490241EAD05140021C901D912098199966
:101DE000A0FB0101490241EAD05140021A901B9127
:101DF0001C981D99000D40EA01320B0D1A981B9991
:101E0000000D40EA0130090DEC46CCF80410CCF886
:101E100000004EF68E20C0F6020016F075FC48F663
:101E20003441C2F201010C90084602F07FFA042806
:101E30003DD1FFE748F63440C2F2010012A902F09A
:101E40004FFA1799DDF860E0A1FB0E1ECDF844E0D3
:101E500010912099DDF884E0BEF80AE0A1FB0E1E87
:101E60004FEA4E2E4EEAD15E49020E91CDF83CE08B
:101E70001099DDF844E0090D41EA0E324FEA1E5395
:101E80000E99DDF83CE0090D41EA0E314FEA1E5E85
:101E9000EC46CCF804E0CCF800104EF66221C0F617
:101EA00002010B90084616F02FFC0A90FFE71A98E3
:101EB0001B9940F21C12C2F200025268B0EB0250B1
:101EC00071EB12310990089161D2FFE74EF62A209A
:101ED000C0F6020016F018FC0790FFE71A981B994D
:101EE00040F21C12C2F200025268B0EB025071EBD9
:101EF00012310690059149D2FFE700F0C3F98DF841
:101F00007B009DF87B00002818D0FFE79DF87B0040
:101F1000042808D1FFE74FF22000C0F6020016F0B7
:101F2000F3FB049009E09DF87B104EF60230C0F6FA
:101F3000020016F0E9FB0390FFE727E04FF23900BB
:101F4000C0F6020020A921AA12F0F6FB8DF87B0052
:101F50009DF87B00002801D0FFE717E02098199931
:101F6000A0FB0101490241EAD05140021A901B91A5
:101F70001A981B99000D40EA01320B0D4EF64820CD
:101F8000C0F6020016F0C0FB0290A7E7FFE722B000
:101F900080BD000080B5ADF51C7D4FF2A601C0F6F6
:101FA000020110A8012213F057FD8DF83F009DF8A3
:101FB0003F0000280DD1FFE710A812F061FB4EF69C
:101FC000E55EC0F6020E0C90704616F09DFB0B907D
:101FD00064E04EF6C810C0F6020016F095FB4FF212
:101FE000A601C0F602010DF1400E0A220A907046C9
:101FF00013F032FD8DF83F009DF83F0000280AD015
:10200000FFE79DF83F104EF68F30C0F6020016F045
:102010007BFB099042E04EF61A60C0F602000E907B
:1020200000200D900E980890FEF74FF90DF1400E2C
:102030000DAB079070460899079A14F07BFB8DF85A
:102040003F009DF83F00002812D1FFE70D980E9940
:1020500006900846FEF739F90699814208D1FFE754
:102060004EF6CC50C0F6020016F04EFB059009E08B
:102070009DF83F104EF6AE30C0F6020016F044FB5D
:102080000490FFE710A8039014F022FADDF80CE0AA
:102090000290704612F0F4FA0190FFE70DF51C7DF6
:1020A00080BD000080B548F6D430C2F2010000F0D7
:1020B00043FE80BD80B548F67430C2F2010000F0E6
:1020C0003BFE80BD84B00146039003980078103831
:1020D0004AF6AB22CAF6AA22A0FB02021209029219
:1020E000029A49F22813C0F601039A5C039BDA6551
:1020F000029A042A0191009007D3FFE70398016830
:10210000042262F30901816506E00398016840F248
:10211000FF3291438165FFE70398806D04B07047FB
:1021200087B00146069000208DF817000698806A57
:102130000490069880690028039122D1FFE7049853
:10214000032802901BD80299DFE801F0020D021863
:102150000698C06AC001002804D5FFE701208DF869
:102160001700FFE70CE00698C06AB0F1C07F04D109
:10217000FFE701208DF81700FFE701E000E0FFE72F
:1021800045E006988069B0F5005F25D1FFE7049827
:10219000032801901ED80199DFE801F00206021120
:1021A00001208DF8170016E00698C06AC0010028CB
:1021B00004D5FFE701208DF81700FFE70BE0069834
:1021C000C06AB0F1C07F04D1FFE701208DF817008D
:1021D000FFE700E0FFE719E004980328009004D32C
:1021E000FFE70098032804D00EE001208DF81700C7
:1021F0000BE00698C06AC001002804D5FFE7012063
:102200008DF81700FFE700E0FFE7FFE7FFE79DF825
:10221000170007B070470000B0B588B09C469646DE
:102220000C460546079006910592049307980068AE
:10223000016821F4802101600498079909684860C9
:10224000079880684028CDF80CC0CDF808E00194CC
:10225000009509D1FFE705980799096888600698F5
:1022600007990968C86008E00698079909688860B6
:10227000059807990968C860FFE708B0B0BD00007D
:102280007047000080B5ADF5507D36A84FF48C71D5
:10229000FDF7F2FF06A88021FDF7EEFF40F21C10CB
:1022A000C2F20000037A4FF2B402C0F6020226A87E
:1022B000402116F039FA4FF23501C0F60201C2AAE8
:1022C0000590104613F0CAFD8DF83E039DF83E03BD
:1022D000002805D0FFE79DF83E038DF83F038DE011
:1022E000FFE7C2A87CA913F0ABFF8DF83E039DF871
:1022F0003E03002805D1FFE79DF80602002801D122
:10230000FFE75DE07CA816304FF2DE01C0F6020167
:10231000FDF7BDFF00280BD1FFE77CA816304FF278
:102320008801C0F60201FDF7B2FF002847D0FFE7A1
:102330009DF8EE0000282DD0FFE7BDF8F401BDF8B0
:10234000DC10884226DBFFE7BDF8F401BDF8DC10A5
:10235000884207D1FFE7BDF8F601BDF8DE108842DC
:1023600018DBFFE7BDF8F401BDF8DC10884225D189
:10237000FFE7BDF8F601BDF8DE1088421ED1FFE789
:102380007CA8163036A91631FDF7A6FFB0F1FF3F45
:1023900014DCFFE736A87CA94FF48C720491FDF79A
:1023A00052FF049800F116034FF2A002C0F6020299
:1023B00006A8802116F0B8F90390FFE7FFE790E741
:1023C000C2A812F08DF99DF818E0BEF1000F02903E
:1023D00010D0FFE74EF61050C0F6020006A901919A
:1023E00016F092F901990090084614F0F3F88DF870
:1023F0003F0303E004208DF83F03FFE79DF83F0310
:102400000DF5507D80BD000080B584B0014603907D
:10241000039848F63442C2F2010202901046029A32
:102420000191114601F05CFF04B080BD10B588B089
:1024300013468C4686460690059104920699059AA5
:10244000049848F63444C2F2010403902046039CE9
:1024500002932346CDF804C0CDF800E002F044FB1F
:10246000002804D0FFE701208DF81F000AE0FFE7F5
:1024700000F00CF8002801D0FFE7F9E700208DF804
:102480001F00FFE79DF81F0008B010BD80B582B0A7
:102490004FF6FF70ADF80400FFE7BDF80400411EE1
:1024A000ADF80410002811D0FFE748F63440C2F21E
:1024B000010001F03BFF042804D1FFE700208DF864
:1024C000070007E0012000F013FFE6E701208DF888
:1024D0000700FFE79DF8070002B080BD10B588B087
:1024E00013468C4686460690059104920699059AF5
:1024F000049848F63444C2F2010403902046039C39
:1025000002932346CDF804C0CDF800E002F0E8FBCA
:10251000002804D0FFE701208DF81F000AE0FFE744
:10252000FFF7B4FF002801D0FFE7F9E700208DF89E
:102530001F00FFE79DF81F0008B010BD80B54FF4E5
:10254000805001F05BF880BD72B6FFE7FEE7000047
:1025500010B5B4B040F26010C2F200004FF40C713C
:10256000FDF78AFE49F29830C2F2010015A94FF03A
:10257000000E13907246CDF848E005F041F814A91A
:10258000139A11901046129A04F0EEFF9DF8531022
:1025900040F21B12C2F2000211709DF8511040F27D
:1025A0001A12C2F2000211709DF8521040F2181275
:1025B000C2F2000211709DF8541040F21912C2F2DA
:1025C0000002117040F21C11C2F200010B7A4FF2AE
:1025D000B402C0F602020DF16B014FF0200E109014
:1025E00008460F91714616F09FF80F990E90084615
:1025F00012F0F6FB8DF8CB009DF8CB00002813D02D
:10260000FFE79DF8CB0008280ED0FFE79DF8CB2010
:102610004EF61140C0F602000DF16B0116F074F891
:10262000002133910D9085E09DF851009DF85210E6
:102630009DF8532002F5FA629DF854309DF855C07C
:102640009DF856E06C46C4F814E0C4F810C0E3608E
:10265000A160606022604FF2C302C0F602020DF179
:102660008B0040210DF16B030C9016F05DF840F2E9
:102670006011C2F2000112220B9008460C9913F06F
:10268000EBF98DF8CB009DF8CB0000280ED0FFE7CA
:102690009DF8CB204EF6F030C0F602000DF18B0114
:1026A00016F032F8002133910A9043E040F26010B6
:1026B000C2F20000C16812F053F98DF8CB009DF80A
:1026C000CB00002814D0FFE79DF8CB104EF6BD20BC
:1026D000C0F6020016F018F840F26011C2F20001D4
:1026E0000990084611F0CCFF00213391089021E0B9
:1026F00040F26010C2F20000C06800280AD1FFE773
:102700004EF6E440C0F602000DF18B0115F0FCFF1F
:10271000079009E04EF6FA40C0F602000DF18B0179
:1027200015F0F2FF0690FFE740F26010C2F20000E1
:102730003390FFE7339834B010BD000080B584B00B
:102740000A46034603900291039802994FF0000C49
:1027500001926246009300F003F804B080BD0000CF
:1027600080B586B013468C468646059004918DF858
:102770000F2001208DF80E0000208DF80D0040F68E
:102780007060C2F20000407A00280293CDF804C0C5
:10279000CDF800E026DCFFE740F67060C2F20000F2
:1027A000417A002242540599437A00EB8303596031
:1027B0009DF80F10437A03441972417A4B1C4372FF
:1027C0008DF80D109DF80D003030049908700498B4
:1027D0003A21417004982F2181700498C2708DF8BD
:1027E0000E20FFE79DF80E0006B080BD80B58CB0CE
:1027F0004FF22610C0F6020000210A9008460A9AFD
:1028000009911146099A13F0C7F840F69C61C2F28B
:1028100000010122089008460A9913F0BDF849F218
:102820002071C2F201010870087800280CD1FFE77E
:102830004EF6B950C0F6020015F066FF4FF0000EDC
:10284000CDF82CE0079083E049F22070C2F201003D
:1028500000780D286CD1FFE74EF6A810C0F60200F4
:1028600015F052FFEE464FF40071CEF800104FF213
:102870003901C0F6020149F62C13C2F201034FF0F0
:10288000030E002206900846714612F0BDFB49F285
:102890002071C2F2010108700878002838D1FFE7E2
:1028A0004EF6EE10C0F6020015F02EFF40F69C6EBC
:1028B000C2F2000E4FF22611C0F60201012205906D
:1028C000704613F069F849F22071C2F201010870F4
:1028D000087800280CD1FFE74EF6B050C0F6020091
:1028E00015F012FF4FF0000ECDF82CE004902FE011
:1028F00049F22070C2F2010001784EF67440C0F631
:10290000020015F001FF4FF0FF310B9103901FE023
:1029100049F22070C2F2010001784EF65D40C0F627
:10292000020015F0F1FE4FF0FF310B9102900FE025
:1029300049F22070C2F2010001784EF69140C0F6D3
:10294000020015F0E1FE4FF0FF310B910190FFE71F
:102950000B980CB080BD000080B58AB001468DF8A0
:1029600027009DF8270041F2D002C2F2000247F68C
:10297000085310FB03200890089847F6045280582B
:10298000800006900898069A49F2F043C2F20103CB
:102990000DF11C0C04901846049B039119466346E4
:1029A00013F0C8FE8DF817009DF81700002805D118
:1029B000FFE70798069988420CD0FFE70699079A27
:1029C0009DF817304FF29D40C0F6020015F09CFEB6
:1029D0000290FFE740F2D430C2F2000001780131EA
:1029E0000170C8B20A280FDBFFE749F2F040C2F2DB
:1029F000010013F06DFD40F2D43EC2F2000E002142
:102A00008EF800100190FFE70AB080BD80B5ADF5EB
:102A1000087D68464FF4007101604FF23900C0F63E
:102A20000200032100220DF11B0312F0EDFA8DF8D4
:102A30001B029DF81B0200280DD0FFE79DF81B121A
:102A40004EF61530C0F6020015F05EFE4FF0FF3175
:102A50008791059032E04EF60C20C0F6020015F08A
:102A600053FE40F69C6EC2F2000E4FF23901C0F6E2
:102A7000020101220490704612F08EFF8DF81B02B5
:102A80009DF81B0200280DD0FFE79DF81B124EF6A3
:102A90002E30C0F6020015F037FE6FF0010187916D
:102AA00003900BE04EF60260C0F6020015F02CFE1B
:102AB0004FF0000ECDF81CE20290FFE787980DF56D
:102AC000087D80BD80B584B047F61020C1F6FF7048
:102AD0000068039047F61420C1F6FF70006802906A
:102AE00047F61820C1F6FF7000680190019803991D
:102AF000084403900398002813D0FFE7039840F29E
:102B0000E801C2F200018A1C0823009111461A460E
:102B100006F0DAFB029800991231042206F0D4FB89
:102B2000FFE704B080BD000080B586B00146049088
:102B30000498806D0390019100F0D8FF02900498F2
:102B400090F8350002280DD0FFE7049880214165F8
:102B5000FFE70498002180F83410FFE701208DF88A
:102B600017005BE004980068016821F0160101601D
:102B700004980068416921F0800141610498006C6B
:102B8000002805D1FFE70498806C002807D0FFE7F4
:102B900004980068016821F008010160FFE70498CB
:102BA0000068016821F001010160FFE704980068F6
:102BB000006810F0010F1BD0FFE700F097FFDDF871
:102BC00008E0A0EB0E00062811D3FFE704982021AF
:102BD00041650498032180F83510FFE7049800212F
:102BE00080F83410FFE703208DF8170016E0DDE7CA
:102BF0000498C06D3F2101FA00F0039988600498A1
:102C0000012180F83510FFE70498002180F8341086
:102C1000FFE7FFE700208DF81700FFE79DF817009A
:102C200006B080BD83B001460190019890F8350050
:102C30000228009107D0FFE701988021416501201B
:102C40008DF80B000EE00198052180F835100198F1
:102C50000068016821F001010160FFE700208DF8A4
:102C60000B00FFE79DF80B0003B0704780B586B0FE
:102C70000146049004980028029104D1FFE7012046
:102C80008DF817004BE0049890F83500022804D125
:102C9000FFE702208DF8170041E004980068016802
:102CA00021F001010160049800680021016004988E
:102CB0000068416004980068816004980068C16001
:102CC0000498006801610498006821224261049818
:102CD0000191FFF7F7F9039004980199C1630498F3
:102CE000016404984164049881640498C164049860
:102CF00001650498C06D3F2202FA00F0039A9060CB
:102D000004984165049880F83510FFE70498002185
:102D100080F83410FFE700208DF81700FFE79DF8DA
:102D2000170006B080BD000082B0014601900198F6
:102D3000406D009102B0704780B588B001460790A1
:102D40000020059040F24800C2F20000006848F2FE
:102D5000B512C1F64E32A0FB0202920A0492079A03
:102D6000926D0392039A12680692069A079BDB6D96
:102D70004FF0080C0CFA03F31A42029101901BD099
:102D8000FFE707980068006810F0040F13D0FFE712
:102D900007980068016821F0040101600798C06D80
:102DA000082101FA00F0039988600798416D41F00D
:102DB00001014165FFE7FFE706980799C96D012208
:102DC00002FA01F1084215D0FFE707980068406950
:102DD00010F0800F0DD0FFE70798C06D012101FAB8
:102DE00000F0039988600798416D41F00201416548
:102DF000FFE7FFE706980799C96D042202FA01F17F
:102E0000084215D0FFE707980068006810F0020F2D
:102E10000DD0FFE70798C06D042101FA00F0039977
:102E200088600798416D41F004014165FFE7FFE7C5
:102E300006980799C96D102202FA01F108424BD099
:102E4000FFE707980068006810F0080F43D0FFE71D
:102E50000798C06D102101FA00F003998860079867
:102E60000068006810F4802F1CD0FFE70798006806
:102E7000006810F4002F0AD1FFE70798006C0028C3
:102E800004D0FFE70798016C8847FFE709E007983F
:102E9000806C002804D0FFE70798816C8847FFE723
:102EA000FFE717E007980068006810F4807F07D1FB
:102EB000FFE707980068016821F008010160FFE75B
:102EC0000798006C002804D0FFE70798016C88473A
:102ED000FFE7FFE7FFE7FFE706980799C96D2022A4
:102EE00002FA01F1084200F09580FFE707980068B8
:102EF000006810F0100F00F08C80FFE70798C06D9D
:102F0000202101FA00F003998860079890F83500B5
:102F1000052838D1FFE707980068016821F01601FD
:102F2000016007980068416921F0800141610798BC
:102F3000006C002805D1FFE70798806C002807D0B7
:102F4000FFE707980068016821F008010160FFE7CA
:102F50000798C06D3F2101FA00F003998860079837
:102F6000012180F83510FFE70798002180F8341020
:102F7000FFE70798006D002804D0FFE70798016D70
:102F80008847FFE781E007980068006810F4802F09
:102F90001CD0FFE707980068006810F4002F0AD1E2
:102FA000FFE70798406C002804D0FFE70798416CC2
:102FB0008847FFE709E00798C06B002804D0FFE7C7
:102FC0000798C16B8847FFE7FFE721E00798006893
:102FD000006810F4807F11D1FFE70798006801684E
:102FE00021F0100101600798012180F83510FFE7FA
:102FF0000798002180F83410FFE7FFE70798C06BBF
:10300000002804D0FFE70798C16B8847FFE7FFE778
:10301000FFE7FFE70798406D002836D0FFE70798E5
:10302000406D10F0010F26D0FFE70798052180F8CA
:10303000351007980068016821F001010160FFE781
:103040000598013005900499884201D9FFE707E00F
:10305000FFE707980068006810F0010FF0D1FFE764
:103060000798012180F83510FFE70798002180F8C4
:103070003410FFE7FFE70798C06C002804D0FFE793
:103080000798C16C8847FFE7FFE708B080BD0000E4
:1030900080B586B00146049000200390009100F0B6
:1030A00025FD02900498002804D1FFE701208DF847
:1030B0001700AAE00498406A002801D0FFE7FFE764
:1030C0000498022180F83510FFE70498002180F869
:1030D0003410FFE704980068016821F001010160E5
:1030E000FFE704980068006810F0010F14D0FFE7B4
:1030F00000F0FCFCDDF808E0A0EB0E0006280AD387
:10310000FFE70498202141650498032180F83510D9
:103110008DF8171079E0E4E70498006800680390E0
:10312000039848F23F01CFF2100108400390049841
:1031300041688268C368D0F810C01143194341EA5E
:103140000C014269114382691143C2691143006A4B
:1031500008430399084303900498406A042808D15F
:10316000FFE70498C16A006B084303990843039082
:10317000FFE70398049909680860049800684069AB
:103180000390039820F0070003900498406A039985
:10319000084303900498406A04281CD1FFE7049870
:1031A000806A0399084303900498C06A002811D0EC
:1031B000FFE70498FEF7B4FF00280AD0FFE7049861
:1031C000402141650498012180F835108DF81710D1
:1031D0001BE0FFE7FFE7039804990968486104983A
:1031E000FEF770FF01900498C06D3F2101FA00F0D6
:1031F0000199886004980021416504984FF0010E00
:1032000080F835E08DF81710FFE79DF8170006B03D
:1032100080BD0000B0B58CB09C4696460C46054675
:103220000A9009910892079300208DF81B000A98D4
:10323000806D0590CDF810C0CDF80CE0029401959A
:10324000FFE70A9890F83400012804D1FFE7022034
:103250008DF82F0047E00A98012180F83410FFE72D
:10326000FFE70A9890F8350001282DD1FFE70A986A
:10327000022180F835100A98002141650A980999C1
:10328000089A079BFEF7C8FF0A98C06D3F2101FA14
:1032900000F0059988600A980068016841F01601FD
:1032A00001600A98006C002807D0FFE70A980068C0
:1032B000016841F008010160FFE70A9800680168B1
:1032C00041F00101016009E0FFE70A98002180F860
:1032D0003410FFE702208DF81B00FFE79DF81B006C
:1032E0008DF82F00FFE79DF82F000CB0B0BD000057
:1032F00080B584B001460390009100F0F7FB029086
:103300000398019001980130002809D0FFE740F2AE
:103310005710C2F200000078019908440190FFE7BD
:10332000FFE700F0E3FBDDF808E0A0EB0E00DDF8BE
:1033300004E0704501D2FFE7F3E704B080BD000070
:1033400092B00A4603461190109100200E900D9005
:103350000C900F900B920A93FFE70F980F2800F242
:103360002C81FFE70F98012101FA00F00E901098D0
:103370000E9908400D900D980E99884240F01881E2
:10338000FFE70F9820F0030043F60801C4F20101A3
:1033900040580C900F9800F0030080000F2101FAB4
:1033A00000F00C9908400C900C9811990022C4F27E
:1033B00002029142099003D1FFE7002008907AE0D1
:1033C000119840F20041C4F20201884203D1FFE7A4
:1033D000012007906CE0119840F60001C4F2020150
:1033E000884203D1FFE7022006905EE0119840F684
:1033F0000041C4F20201884203D1FFE70320059097
:1034000050E0119841F20001C4F20201884203D158
:10341000FFE70420049042E0119841F20041C4F219
:103420000201884203D1FFE70520039034E01198A0
:1034300041F60001C4F20201884203D1FFE70620F1
:10344000029026E0119841F60041C4F20201884240
:1034500003D1FFE70720019018E0119842F2000124
:10346000C4F20201884203D1FFE7082000900AE07D
:10347000119842F20041C4F202010A22884208BFB8
:1034800009220092FFE700980190FFE7019802905F
:10349000FFE702980390FFE703980490FFE7049882
:1034A0000590FFE705980690FFE706980790FFE76D
:1034B00007980890FFE70898C0B20F9901F0030140
:1034C000890088400999814239D1FFE70D9843F678
:1034D0000041C4F201010A6822EA000008600D9868
:1034E00043F60441C4F201010A6822EA00000860C0
:1034F0000D9843F60C41C4F201010A6822EA00006B
:1035000008600D9843F60841C4F201010A6822EAF6
:10351000000008600F9800F0030080000F2101FAFE
:1035200000F00C900C980F9921F0030143F608026B
:10353000C4F201028B5823EA00008850FFE70F987D
:103540004000032101FA00F0119A136823EA0000F9
:1035500010600F9800F0070292000F2303FA02F2A6
:10356000119B4FF6FC7CC7F6FF7C0CEA5000184418
:10357000036A23EA020202620F98400001FA00F097
:10358000119AD36823EA0000D0600F98012202FA52
:1035900000F0119A536823EA000050600F98400031
:1035A00001FA00F011998A6822EA00008860FFE7BA
:1035B000FFE70F9801300F90CFE612B07047000080
:1035C00080B582B00146ADF80600BDF8060048F6A9
:1035D0005832C2F20102128A904200910CD1FFE7E8
:1035E00040F66460C2F200000078032803D1FFE7D0
:1035F000FEF7BCF9FFE7FFE702B080BD80B582B0FF
:103600000146ADF8060043F61440C4F2010000681C
:10361000BDF80620104200910CD0FFE7BDF806006F
:1036200043F61441C4F201010860BDF80600FFF73B
:10363000C7FFFFE702B080BD93B00A460346129071
:10364000119100200F900E900D9010900B920A9304
:10365000FFE710980F2800F2F181FFE71098012191
:1036600001FA00F00F90119800680F9908400E9031
:103670000E980F99884240F0DC81FFE7119840686E
:1036800000F00300012807D0FFE71198406800F020
:10369000030002282FD1FFE7129880680D90109840
:1036A0004000032101FA00F00D9921EA00000D907D
:1036B0001198C0681099490088400D9908430D90F1
:1036C0000D9812998860129840680D901098012109
:1036D00001FA00F00D9921EA00000D901198406860
:1036E000C0F30010109988400D9908430D900D9873
:1036F00012994860FFE71198406800F00300032822
:1037000018D0FFE71298C0680D9010984000032170
:1037100001FA00F00D9921EA00000D9011988068DF
:103720001099490088400D9908430D900D98129901
:10373000C860FFE71198406800F00300022828D114
:10374000FFE7129810994FF6FC72C7F6FF7202EA73
:1037500051010844006A0D90109800F007008000A5
:103760000F2101FA00F00D9921EA00000D90119847
:103770000069109901F00701890088400D990843FC
:103780000D900D981299109B02EA530211440862A1
:10379000FFE7129800680D9010984000032101FA8D
:1037A00000F00D9921EA00000D901198406800F09A
:1037B00003001099490088400D9908430D900D9819
:1037C00012990860119880798007002800F03081F4
:1037D000FFE7FFE700200C9043F64400C4F202002C
:1037E000016841F480410160006800F480400C9061
:1037F0000C980990FFE7109820F0030043F60801A9
:10380000C4F2010140580D90109800F003008000B0
:103810000F2101FA00F00D9921EA00000D90129895
:103820000021C4F20201884203D1FFE70020089082
:103830007AE0129840F20041C4F20201884203D1BA
:10384000FFE7012007906CE0129840F60001C4F2F7
:103850000201884203D1FFE7022006905EE0129841
:1038600040F60041C4F20201884203D1FFE7032081
:10387000059050E0129841F20001C4F20201884222
:1038800003D1FFE70420049042E0129841F2004186
:10389000C4F20201884203D1FFE70520039034E01F
:1038A000129841F60001C4F20201884203D1FFE7F9
:1038B0000620029026E0129841F60041C4F202016F
:1038C000884203D1FFE70720019018E0129842F2E6
:1038D0000001C4F20201884203D1FFE708200090F2
:1038E0000AE0129842F20041C4F202010A22884220
:1038F00008BF09220092FFE700980190FFE70198B6
:103900000290FFE702980390FFE703980490FFE717
:1039100004980590FFE705980690FFE70698079042
:10392000FFE707980890FFE70898C0B2109901F0E8
:103930000301890088400D9908430D900D98109956
:1039400021F0030143F60802C4F20102885043F655
:103950000840C4F2010000680D900E980D9921EA0C
:1039600000000D9011988079C006002805D5FFE76A
:103970000E980D9908430D90FFE70D9843F6084106
:10398000C4F20101086043F60C40C4F20100006873
:103990000D900E980D9921EA00000D9011988079F4
:1039A0008006002805D5FFE70E980D9908430D9075
:1039B000FFE70D9843F60C41C4F20101086043F69D
:1039C0000440C4F2010000680D900E980D9921EAA0
:1039D00000000D90119880798007002805D5FFE739
:1039E0000E980D9908430D90FFE70D9843F604419A
:1039F000C4F20101086043F60040C4F2010000680F
:103A00000D900E980D9921EA00000D901198807983
:103A1000C007002805D0FFE70E980D9908430D90C8
:103A2000FFE70D9843F60041C4F201010860FFE78B
:103A3000FFE7FFE71098013010900AE613B07047D7
:103A400084B00A4603460390ADF80A100398006953
:103A5000BDF80A1008420192009304D0FFE701204C
:103A60008DF8090003E000208DF80900FFE79DF8BC
:103A7000090004B07047000085B00A460346049070
:103A8000ADF80E100498406902900298BDF80E102F
:103A900000EA010C21EA000040EA0C400499886128
:103AA0000192009305B0704780B585B013468C46EF
:103AB00086460490ADF80E108DF80D209DF80D008F
:103AC00000280293CDF804C0CDF800E005D0FFE750
:103AD000BDF80E000499886105E0BDF80E000004F1
:103AE00004998861FFE705B080BD000049F6281001
:103AF000C2F201000068704740F25710C2F20000A5
:103B0000007849F62811C2F201010A6810440860E1
:103B10007047000080B582B043F60040C4F2020056
:103B2000016841F400710160016841F48061016045
:103B3000016841F480710160032001F02FFA0F2029
:103B400000F006F8019001F0C5F9002002B080BD38
:103B500080B584B00146029040F24800C2F20000F5
:103B6000006840F25712C2F2000212784FF47A73E2
:103B7000B3FBF2F2B0FBF2F0019104F09FFE0028DB
:103B800004D0FFE701208DF80F0018E002980F28FD
:103B90000DD8FFE702994FF0FF30002201F0DAF96B
:103BA000029840F25811C2F20001086003E00120BF
:103BB0008DF80F0003E000208DF80F00FFE79DF85F
:103BC0000F0004B080BD000082B00146019000915A
:103BD00002B07047B0B594B00A46034612901191F6
:103BE000002008901298032180F83410129811993F
:103BF0000792069305F036FF09900998002840F0D7
:103C0000AC80FFE71198B0F5805F0AD1FFE712980A
:103C1000006840F20021C0F2B73109F069FE099056
:103C200021E01198B0F5006F0AD1FFE71298006803
:103C300040F20011C0F2B73109F05AFE099011E0CC
:103C40001198002809D1FFE7129800680021C0F2FE
:103C5000B73109F04DFE099003E04FF00060099084
:103C6000FFE7FFE7FFE70998002875D1FFE74FF668
:103C7000FF701090FFE712980168C06C0004059077
:103C80000846059909F0BEFD09900998002801D061
:103C9000FFE71CE012980068002109F019FB08906A
:103CA000109801381090FFE700209DF82110C907F7
:103CB0000029049006D1FFE71098002818BF0120C2
:103CC0000490FFE70498C0070028D4D1FFE71098BC
:103CD000002836D0FFE70998002832D1FFE79DF889
:103CE00020000006002804D5FFE74FF4803009903B
:103CF00026E0129841688268C368D0F810C0D0F8F6
:103D000014E080690F90CDF838E0CDF834C00C9302
:103D10000B920A9111980D90129800680A990B9ACB
:103D20000C9BDDF834C0DDF838E00F9C6D46AC60CC
:103D3000C5F804E0C5F800C009F0E2FA0390FFE717
:103D400009E01098002804D1FFE74FF000400990E7
:103D500000E0FFE7FFE7FFE7FFE71298012180F8A7
:103D600034100998002810D0FFE71298006840F23C
:103D7000FF51C0F240018163099812998A6B104388
:103D8000886301208DF84F0003E000208DF84F007C
:103D9000FFE79DF84F0014B0B0BD000080B584B0BF
:103DA0000146029002980028019104D1FFE701200A
:103DB0008DF80F0012E00298032180F83410029869
:103DC00005F0EAFD029800F05DFD02980021816394
:103DD000029880F834108DF80F10FFE79DF80F005F
:103DE00004B080BD82B001460190009102B07047DE
:103DF00080B586B00A4603460490039100200290E5
:103E00000499096E890FDDF80CC08CF80010049934
:103E1000096EC1F38361DDF80CC08CF801100499C0
:103E2000096EC1F30161DDF80CC08CF80210049931
:103E3000B1F86210DDF80CC08CF803100499096E1B
:103E4000090ADDF80CC08CF804100499096EDDF83D
:103E50000CC08CF805100499496E090DDDF80CC0F2
:103E6000ACF806100499496EC1F30341DDF80CC0AB
:103E70008CF808100499496EC1F3C031DDF80CC00C
:103E80008CF809100499496EC1F38031DDF80CC03B
:103E90008CF80A100499496EC1F34031DDF80CC06A
:103EA0008CF80B100499496EC1F30031DDF80CC099
:103EB0008CF80C10039948730498416E806E6FF370
:103EC0009F21890041EA9070039908610498806EEF
:103ED000C0F3C260039908750498806EC0F3026055
:103EE000039948750498806EC0F342500399887511
:103EF0000498806EC0F382400399C8750498806E60
:103F0000C0F3C23003990876049802A94FF0D40C8C
:103F10006FF0704E019262460093734605F04CFEBE
:103F2000002804D0FFE701208DF81700C2E00498B4
:103F3000406C002824D1FFE7039800690130049900
:103F400008650398007E00F007000230012101FAA5
:103F500000F0049A136D584310650398007A00F03E
:103F60000F0001FA00F0049948650498016D426D54
:103F7000520A5143816504984FF40071C16526E0EF
:103F80000498406C01280ED1FFE702980499086557
:103F90000498016D816504984FF40071416504989F
:103FA000416DC16512E00498006840F2FF51C0F213
:103FB000400181630498816B41F0805181630498D2
:103FC000012180F834108DF8171073E0FFE7049892
:103FD000806EC0F38030039948760498806EC0F3F9
:103FE000C610039988760498806E00F07F000399CC
:103FF000C8760498C06EC00F039908770498C06E05
:10400000C0F34170039948770498C06EC0F3826092
:10401000039988770498C06EC0F383500399C877DA
:104020000498C06EC0F34050039981F820000398B3
:10403000002180F821100498C06EC0F30040039A5C
:1040400082F822000498C06EC0F3C030039A82F850
:1040500023000498C06EC0F38030039A82F82400D5
:104060000498C06EC0F34030039A82F8250004988B
:10407000C06EC0F30030039A82F826000498C06E28
:10408000C0F38120039A82F827000498C06EC0F321
:104090000120039A82F828000498C06EC0F34600FD
:1040A000039A82F829000398012280F82A208DF8CB
:1040B0001710FFE79DF8170006B080BD80B594B0DB
:1040C00013468C4686461290119110920593CDF8B6
:1040D00010C0CDF80CE0FFF709FD089011980028FA
:1040E00009D1FFE71298816B41F0006181630120E3
:1040F0008DF84F00EFE0129890F83400012840F05E
:10410000E680FFE71298002181631298032280F86D
:10411000342012980068C162119806904FF0FF3069
:104120000A904FF400700B9090200C9002200D909C
:104130000E9101200F90129800680AAA0291114670
:1041400009F07CF81299096801900846029909F073
:1041500031FB09900998002813D0FFE712980068F6
:1041600040F2FF51C0F240018163099812998A6BB5
:10417000104388631298012180F834108DF84F1095
:10418000A9E0FFE712980068406B10F4957F43D1D7
:10419000FFE712980068406B10F4004F18D0FFE75B
:1041A00000200790FFE70798072810D8FFE712982C
:1041B000006809F0F1F8DDF818E0CEF80000069884
:1041C00004300690FFE7079801300790EBE7FFE720
:1041D000FFF78CFCDDF820E0A0EB0E00DDF840E0FE
:1041E000704504D2FFE71098002814D1FFE7129819
:1041F000006840F2FF51C0F2400181631298816B68
:1042000041F0004181631298012180F834100320AD
:104210008DF84F005FE0B5E712980068406B10F032
:10422000080F13D0FFE71298006840F2FF51C0F268
:10423000400181631298816B41F0080181631298FB
:10424000012180F834108DF84F1044E01298006876
:10425000406B10F0020F13D0FFE71298006840F295
:10426000FF51C0F2400181631298816B41F002015D
:1042700081631298012180F834108DF84F102AE0E4
:1042800012980068406B10F0200F13D0FFE71298CF
:10429000006840F2FF51C0F2400181631298816BC7
:1042A00041F0200181631298012180F834108DF8CB
:1042B0004F1010E0FFE7FFE7FFE71298006840F2B9
:1042C0003A5181631298012180F83410FFE70020F1
:1042D0008DF84F00FFE79DF84F0014B080BD00003F
:1042E00084B00A460346039002910398406C0299F9
:1042F00008600398806C029948600398C06C02992A
:1043000088600398006D0299C8600398406D029917
:1043100008610398806D029948610398C06D029905
:10432000886100200192009304B0704780B586B088
:104330000146059000200290059802AA01911146BD
:1043400005F058FD03900398002806D0FFE7039876
:1043500005998A6B10438863FFE70298C0F34320F6
:104360000490049806B080BD82B001460190019887
:10437000806B009102B0704782B0014601900198B5
:1043800090F83400009102B07047000080B584B00E
:10439000014603900398006B019003980068406BFE
:1043A00000F400400022B2EBD03F00910AD0FFE7BA
:1043B0009DF804000007002804D5FFE7039805F0E6
:1043C000C1FC7BE103980068406B00F48070002121
:1043D000B1EB102F00F09380FFE7039800684FF4D3
:1043E0008071816303980068C16B40F23A32914357
:1043F000C16303980068C16A21F00101C1629DF8A0
:1044000004000006002834D5FFE79DF8040080066C
:10441000002813D5FFE70398006809F045FA0290D9
:104420000298002809D0FFE7029803998A6B10438D
:1044300088630398FFF7D6FCFFE7FFE79DF80400C9
:10444000C007002814D1FFE79DF80400800700286A
:104450000ED4FFE703980068C16A21F00801C16229
:104460000398012180F83410039800F033FCFFE733
:1044700044E09DF80400000700283DD5FFE79DF8C3
:1044800004008007002806D4FFE79DF8040080069A
:10449000002813D5FFE70398006809F005FA029099
:1044A0000298002809D0FFE7029803998A6B10430D
:1044B00088630398FFF796FCFFE7FFE7039800681F
:1044C00040F23A5181630398012180F834109DF83D
:1044D0000400C007002806D1FFE79DF8040080070C
:1044E000002804D5FFE7039800F0EEFB03E00398F3
:1044F00000F0F0FBFFE700E0FFE7FFE7DDE00398F7
:104500000068406B00F480400021B1EB903F0AD07E
:10451000FFE79DF804000007002804D5FFE7039893
:1045200005F098FCC8E003980068406B40F23A211F
:104530000840002818BF0120002800F0BB80FFE7DA
:1045400003980068406B00F002000021B1EB500FAF
:1045500006D0FFE70398816B41F002018163FFE71A
:1045600003980068406B00F008000021B1EBD00F09
:1045700006D0FFE70398816B41F008018163FFE7F4
:1045800003980068406B00F020000021B1EB501F41
:1045900006D0FFE70398816B41F020018163FFE7BC
:1045A00003980068406B00F010000021B1EB101F71
:1045B00006D0FFE70398816B41F010018163FFE7AC
:1045C00003980068406B00F400700021B1EB502F9D
:1045D00006D0FFE70398816B41F008018163FFE794
:1045E0000398006840F23A71816303980068C16BD8
:1045F00040F23A329143C1630398006809F054F9DC
:1046000003998A6B104388639DF804000007002813
:1046100008D5FFE70398012180F834100398FFF7CD
:10462000E1FB46E09DF80400000600283FD5FFE7C7
:104630000398006C002814D0FFE70398006C49F23F
:10464000FD61C0F6000101650398006CFEF7EAFA0F
:10465000002805D0FFE70398006C05F04FF8FFE74E
:1046600024E00398C06B002814D0FFE70398C06BC8
:1046700049F24D61C0F6000101650398C06BFEF779
:10468000D1FA002805D0FFE70398C06B04F0DEFFE5
:10469000FFE70AE00398002181630398012180F875
:1046A00034100398FFF790FAFFE7FFE700E0FFE719
:1046B000FFE700E0FFE7FFE7FFE7FFE704B080BDAB
:1046C00080B584B00146029002980028019104D17F
:1046D000FFE701208DF80F0038E0029890F83400D1
:1046E000002807D1FFE7029800210177029800F027
:1046F00001F9FFE70298032180F83410029800F0D6
:1047000029F8012804D1FFE701208DF80F001DE0F2
:10471000029800218163029801630298012180F8C8
:1047200034100298006900280CD0FFE70298016954
:10473000FFF750FA002804D0FFE701208DF80F00A2
:1047400004E0FFE700208DF80F00FFE79DF80F0061
:1047500004B080BD70B58EB001460C90002005906D
:10476000069007900890099076200A900C980068AF
:10477000059A069BDDF81CC0DDF820E0099C0A9D27
:104780006E46B5607460C6F800E0039111461A46A3
:10479000634608F0B5FD8DF813009DF8130001285D
:1047A00004D1FFE701208DF8370067E048F2A00050
:1047B000C4F22520002101600C98006808F0E2FD99
:1047C0008DF813009DF81300012804D1FFE70120A4
:1047D0008DF8370052E048F2A000C4F225200121F4
:1047E00001600220FEF784FD0C9805F0E1F80B90C3
:1047F0000B9800280CD0FFE70C98012180F83410AA
:104800000B980C9A936B184390638DF8371035E032
:104810000C9804F0BBFF0B900B9800280CD0FFE71E
:104820000C98012180F834100B980C9A936B184364
:1048300090638DF8371021E00C9800684FF40071F8
:1048400008F09AFE0B900B98002813D0FFE70C9805
:10485000006840F2FF51C0F2400181630B980C994F
:104860008A6B104388630C98012180F834108DF80E
:10487000371003E000208DF83700FFE79DF8370080
:104880000EB070BD80B584B00146039003980068F7
:1048900042F60042C4F201029042029127D1FFE7A2
:1048A00043F64400C4F20200016821F40061016093
:1048B00040F60000C4F202004FF4F851FEF740FD4C
:1048C00040F60040C4F202000421FEF739FD0398CF
:1048D000006CFEF7CBF90399C96B01900846FEF70F
:1048E000C5F931210090084600F01CFBFFE704B039
:1048F00080BD000080B594B0014613900020129056
:10490000119010900F900E901398006842F600429C
:10491000C4F2010290420A9140F0E480FFE7FFE711
:1049200000200D9043F64400C4F20200016841F4F7
:1049300000610160006800F400600D900D9809901E
:10494000FFE7FFE700200C9043F63000C4F20200BE
:10495000016841F004010160006800F004000C905F
:104960000C980890FFE7FFE700200B9043F630001B
:10497000C4F20200016841F008010160006800F023
:1049800008000B900B980790FFE74FF4F8500E903B
:1049900002200F9001211091032211920C231293F7
:1049A00040F6000CC4F2020C0DF1380E0690604681
:1049B00005917146CDF810E003930292FEF73CFE9C
:1049C00004200E9006990F91059A1092029B119364
:1049D000DDF80CC0CDF848C040F6004EC4F2020E1F
:1049E000019070460499FEF727FE48F6D430C2F2D3
:1049F000010046F25841C4F2020101604FF000612B
:104A00004160402181600021C1604FF480610161FB
:104A10004FF4805141614FF4804181612021C16197
:104A20004FF40031016201994162029A82624FF4AF
:104A30000003C3624FF400130363FEF729FB002851
:104A400003D0FFE7FDF780FDFFE7FFE7139848F687
:104A5000D431C2F20101016413988863FFE748F67C
:104A60007430C2F2010046F2A041C4F202010160BA
:104A70004FF00061416000218160C1604FF48061AE
:104A800001614FF4805141614FF4804181612021E7
:104A9000C1614FF40031016204214162032181624E
:104AA0004FF40001C1624FF400110163FEF7F0FA08
:104AB000002803D0FFE7FDF747FDFFE7FFE7139866
:104AC00048F67431C2F20101C16313988863FFE7AD
:104AD000312005210022009000F03CFA009800F0FF
:104AE0002DFAFFE714B080BDB0B592B09C46964653
:104AF0000C46054610900F910E920D930E9805905E
:104B00000F980028CDF810C0CDF80CE00294019564
:104B100009D1FFE71098816B41F0006181630120AA
:104B20008DF84700CCE0109890F83400012840F050
:104B3000C380FFE71098002181630E980D99084407
:104B40001099896D884209D9FFE71098816B41F06F
:104B50000071816301208DF84700B1E010980321B6
:104B600080F83410109800680021C1621098006825
:104B7000C26B40F22A331A43C2631098C06B49F2E9
:104B8000E552C0F60002C2631098C06B49F23D5274
:104B9000C0F60002C2641098C06B01651098406CAA
:104BA000012804D0FFE7059840020590FFE7109820
:104BB000C06B002181601098C06B0068006820F015
:104BC000C0001099C96B0A68896808431060109882
:104BD0000168C06B80310F9A0D9B5B029B08FEF74A
:104BE00019FB002818D0FFE710980068C16B21F46A
:104BF0009571C1631098006840F2FF51C0F2400106
:104C0000816310984FF0804181631098012180F8F2
:104C100034108DF8471053E048F28C50C4F2252030
:104C2000012101604FF0FF3007900D98400208907D
:104C30009020099002200A9000200B900C9110986F
:104C4000006807A908F0FAFA0D99022900900AD322
:104C5000FFE710988221016310980068059908F019
:104C6000EFFC069009E0109881210163109800681C
:104C7000059908F00DFD0690FFE70698002817D06B
:104C8000FFE71098006840F2FF51C0F240018163D5
:104C900010980068C16B21F49571C1630698109952
:104CA00088631098012180F834108DF8471007E0D0
:104CB00000208DF8470003E002208DF84700FFE751
:104CC0009DF8470012B0B0BD82B00146019000913E
:104CD00002B0704782B001460190009102B0704767
:104CE000B0B594B09C4696460C460546129011917C
:104CF00010920F931098079011980028CDF818C0C3
:104D0000CDF814E00494039509D1FFE71298816B64
:104D100041F00061816301208DF84F00D5E01298C9
:104D200090F83400012840F0CC80FFE71298002171
:104D3000816310980F9908441299896D884209D9A6
:104D4000FFE71298816B41F00071816301208DF8BB
:104D50004F00BAE01298032180F8341012980068CE
:104D60000021C16212980068C26B40F21A231A43F4
:104D7000C2631298006C49F2DD62C0F60002C263A1
:104D80001298006C49F23D52C0F60002C2641298BB
:104D9000006C01651298406C012804D0FFE7079869
:104DA00040020790FFE70F9802280AD3FFE7129806
:104DB000A021016312980068079908F0C1FD0890CE
:104DC00009E012989021016312980068079908F091
:104DD000DFFD0890FFE70898002819D0FFE7129838
:104DE000006840F2FF51C0F24001816312980068F0
:104DF000C16B21F48D71C163089812998A6B1043BD
:104E000088631298012180F834108DF84F105CE00F
:104E100048F28C50C4F22520012101601298006CE8
:104E2000402181601298006C0068006820F0C0008A
:104E30001299096C0A688968084310601298016821
:104E4000006C119A80310F9B5B029B080291114606
:104E5000029AFEF7DFF9002819D0FFE712980068E0
:104E6000C16B21F48D71C1631298006840F2FF514B
:104E7000C0F2400181631298816B41F080418163EF
:104E80001298012180F834108DF84F101DE04FF07A
:104E9000FF3009900F9840020A9090200B9000205C
:104EA0000C900D9001210E911299096809AA0190A8
:104EB0000846114608F0C2F901998DF84F1000908C
:104EC00003E002208DF84F00FFE79DF84F0014B07B
:104ED000B0BD000084B0FFE70020039043F644001B
:104EE000C4F20200016841F480410160006800F4EE
:104EF0008040039003980190FFE7FFE700200290B5
:104F000043F64000C4F20200016841F080510160A4
:104F1000006800F08050029002980090FFE704B013
:104F20007047000080B582B001468DF807009DF9FA
:104F3000070000910DF0CEFE02B080BD80B582B0BA
:104F400001468DF807009DF9070000910DF0E2FE83
:104F500002B080BD80B58AB013468C4686468DF877
:104F6000270008910792002006900593CDF810C005
:104F7000CDF80CE00DF0EAFE069006980899079A25
:104F80009DF92730029306F021F802990190084616
:104F900001990DF0E3FE0AB080BD000080B582B03B
:104FA00001460190019800910DF0FEFE02B080BD17
:104FB00084B00A46034603908DF80B1001920093CB
:104FC00004B0704784B00A4603460390ADF80A1057
:104FD000BDF80A0003990968486200200192009315
:104FE00004B0704780B587B013468C46864606905D
:104FF0008DF81710ADF8142006980068406A0390E9
:105000009DF8170000280293CDF804C0CDF800E009
:1050100009D1FFE7BDF81400039941EA0040069961
:105020000968886233E006980068806A039901EB9A
:105030001040039000208DF81300FFE79DF8130047
:105040009DF817100139884213D2FFE706980068CF
:105050009DF8131000EB8100D0F80401039901EBD7
:1050600010400390FFE79DF8130001308DF8130006
:10507000E4E7BDF81400039941EA00400699096885
:105080009DF8172001EB8201C1F80001FFE7002025
:1050900007B080BD80B584B0014603900398D0F876
:1050A000E00402910AF060FD019004B080BD0000B0
:1050B00080B586B00A46034605908DF81310059812
:1050C000D0F8E0149DF813C00CEBCC0E00EB8E0072
:1050D000006A039008466146DDF80CC00292624601
:1050E00001930AF069FB009006B080BD80B586B0E0
:1050F0000A46034605908DF813100598D0F8E01481
:105100009DF813C00CEBCC0E00EB8E00D0F86002C3
:10511000039008466146DDF80CC002926246019396
:105120000AF030FC009006B080BD000080B584B06D
:10513000014603900398D0F8E00402910AF01CFDA8
:10514000019004B080BD000080B586B00A460346D9
:1051500005908DF813109DF81300000600280292A8
:1051600001930CD5FFE705989DF8131001F00F018E
:1051700001EBC10100EB8100143003900CE00598B5
:105180009DF8131001F00F0101EBC10100EB81004C
:1051900000F515700390FFE70598006803990CF07F
:1051A00007FF8DF812009DF8120006B080BD0000C8
:1051B00080B588B00A46034606908DF817109DF812
:1051C000170000060028039202930FD5FFE7069808
:1051D0009DF8171001F00F0101EBC10100EB8100F8
:1051E000143004900498012141700FE006989DF856
:1051F000171001F00F0101EBC10100EB810000F578
:1052000015700490049800214170FFE79DF8170085
:1052100000F00F0004990870FFE7069890F89404D6
:10522000012804D1FFE702208DF81F0015E0069841
:10523000012180F89414FFE7FFE7069800680499BD
:105240000CF050F90190FFE70698002180F89414C3
:10525000FFE700208DF81F00FFE79DF81F0008B052
:1052600080BD000080B588B00A46034606908DF8E0
:1052700017109DF8170000F00F0006990979884271
:105280000392029304D9FFE701208DF81F004EE03E
:105290009DF81700000600280FD5FFE706989DF837
:1052A000171001F00F0101EBC10100EB8100143078
:1052B00004900498012141700FE006989DF81710A2
:1052C00001F00F0101EBC10100EB810000F5157049
:1052D0000490049800214170FFE704980021817038
:1052E0009DF8170000F00F0004990870FFE706987A
:1052F00090F89404012804D1FFE702208DF81F00E4
:1053000015E00698012180F89414FFE7FFE706985E
:10531000006804990CF08AFB0190FFE706980021D1
:1053200080F89414FFE700208DF81F00FFE79DF838
:105330001F0008B080BD000080B588B00A46034653
:1053400006908DF8171004920393FFE7069890F8E3
:105350009404012804D1FFE702208DF81F0025E006
:105360000698012180F89414FFE7FFE79DF81700E5
:10537000000600280AD5FFE7069800689DF8171078
:1053800001F00F010CF0F0FE029005E006980068B5
:105390000CF0AEFE0190FFE7FFE70698002180F8D1
:1053A0009414FFE700208DF81F00FFE79DF81F0011
:1053B00008B080BD84B00A46034603908DF80B10F8
:1053C00003989DF80B1001F00F0101EBC10100EBF8
:1053D0008100D0F868020192009304B07047000089
:1053E000B0B58AB09C4696460C46054608908DF8A6
:1053F0001F10ADF81C208DF81B3000208DF81A000E
:105400009DF81F0000060028CDF810C0CDF80CE074
:10541000029401950FD5FFE708989DF81F1001F041
:105420000F0101EBC10100EB8100143005900598DC
:10543000012141700FE008989DF81F1001F00F0145
:1054400001EBC10100EB810000F515700590059896
:1054500000214170FFE79DF81F0000F00F00059943
:105460000870BDF81C006FF3DF20059988609DF877
:105470001B000599087105984078002804D0FFE7C3
:10548000059801784183FFE79DF81B00022804D1AD
:10549000FFE7059800214171FFE7FFE7089890F8C2
:1054A0009404012804D1FFE702208DF8270016E0BC
:1054B0000898012180F89414FFE7FFE70898006836
:1054C00005990BF0CFFE0090FFE70898002180F8C7
:1054D0009414FFE79DF81A008DF82700FFE79DF868
:1054E00027000AB0B0BD0000B0B58CB09C4696460F
:1054F0000C4605460B908DF82B10099208930B98DB
:105500009DF82B1001F00F0101EBC10100EB8100B0
:1055100000F51570079009980799C86008980799D1
:105520000861079800214161079841709DF82B00A0
:1055300000F00F00079908700B9880790128CDF8CA
:1055400018C0CDF814E00494039504D1FFE709983E
:105550000799C861FFE70B980168079A8079029064
:1055600008461146029A0CF011FB002101900846F2
:105570000CB0B0BD80B58AB00A46034608908DF8DD
:105580001F109DF81F0000F00F000899097988424C
:105590000592049304D9FFE701208DF827005EE00F
:1055A0009DF81F00000600280FD5FFE708989DF81A
:1055B0001F1001F00F0101EBC10100EB810014305D
:1055C00006900698012141700DE008989DF81F1083
:1055D00001EBC10100EB810000F515700690069803
:1055E00000214170FFE70698012181709DF81F009E
:1055F00000F00F0006990870FFE7089890F89404EF
:10560000012804D1FFE702208DF8270027E0089841
:10561000012180F89414FFE7FFE7089800680699D5
:105620000CF058FA9DF81F100907002903900CD1BF
:10563000FFE70898016800F29C42807902900846D2
:1056400002990CF099F90190FFE7FFE70898002113
:1056500080F89414FFE700208DF82700FFE79DF8FD
:1056600027000AB080BD0000B0B58CB09C469646BD
:105670000C4605460B908DF82B10099208930B9859
:105680009DF82B1001F00F0101EBC10100EB81002F
:105690001430079009980799C8600898079908611D
:1056A0000798002141610798012141709DF82B0066
:1056B00000F00F00079908700B9880790128CDF849
:1056C00018C0CDF814E00494039504D1FFE70998BD
:1056D0000799C861FFE70B980168079A80790290E3
:1056E00008461146029A0CF051FA00210190084632
:1056F0000CB0B0BD80B59CB001461B901B980068F3
:105700001A901A9819901B98006811910CF098FD46
:10571000002840F02884FFE71B9800680CF00AFE80
:10572000002802D1FFE700F01EBC1998D0F8080845
:10573000C0F30D201B99C1F8D4041B9800680CF02D
:10574000F9FD10F0020F07D0FFE71B9800684169D0
:1057500001F002014161FFE71B9800680CF0EAFDCF
:1057600010F0100F65D0FFE71B980068816921F0E9
:10577000100181611A98006A12901B98129901F029
:105780000F0101EBC10100EB810000F515701890CD
:10579000129800F4F0100221B1EB504F25D1FFE731
:1057A000BDF8480047F6F07108421DD0FFE71A988F
:1057B0001899C968129AC2F30A120CF0CBFD12991B
:1057C00047F6F0721140DDF860E0DEF80C3003EBD4
:1057D0001111CEF80C1012991140189A536903EB6D
:1057E000111151611090FFE71CE0129800F4F010C5
:1057F0000621B1EB504F13D1FFE71A981B9901F224
:105800009C4108220CF0A6FD129947F6F072114057
:10581000189AD2F814E00EEB111151610F9000E0CC
:10582000FFE7FFE71B980068816941F01001816183
:10583000FFE71B9800680CF07DFD10F4002F00F0CE
:10584000A380FFE7002014901B9800680CF016FD61
:105850001690FFE71698002800F09580FFE79DF866
:105860005800C007002800F08780FFE71B980068F9
:105870009DF850100CF042FD15901598C0070028B7
:105880000DD0FFE71998149900EB41100121C0F8E1
:10589000081B1B98149905F02DFC0E90FFE7159836
:1058A000000700280DD5FFE71998149900EB411067
:1058B0000821C0F8081B1B98149905F0CFFB0D9028
:1058C000FFE71598C006002808D5FFE71998149936
:1058D00000EB41101021C0F8081BFFE71598800766
:1058E00000282DD5FFE71A98406910F0800F08D0E6
:1058F000FFE71998D0F8041841F48061C0F8041843
:10590000FFE71B98149901EBC10100EB810000F542
:10591000157018901898C078012809D1FFE71898D9
:105920000021C1701B989DF8501000F033FBFFE779
:105930001998149900EB41100221C0F8081BFFE7E9
:1059400015988006002808D5FFE71998149900EBF0
:1059500041102021C0F8081BFFE71598800400289B
:1059600009D5FFE71998149900EB41104FF4005145
:10597000C0F8081BFFE7FFE7149801301490169851
:105980004008169066E7FFE71B9800680CF0D2FC11
:1059900010F4802F00F0CA80FFE71B9800680CF01D
:1059A00059FC169000201490FFE71698002800F08C
:1059B000BC80FFE79DF85800C007002800F0AE80CB
:1059C000FFE71B9800689DF850100CF06BFC1590D9
:1059D0001598C007002845D0FFE7149800F00F0085
:1059E000012101FA00F013901398199AD2F8343873
:1059F00023EA0000C2F834081998149A00EB421008
:105A0000C0F808191B988079012825D1FFE71B9859
:105A1000149901EBC10100EB8100C169026A1144D4
:105A200001621498002816D1FFE71B98149901EB26
:105A3000C10100EB8100406A00280CD1FFE71B98F0
:105A4000016800F29C4201200C9008460C990BF072
:105A500093FF0B90FFE7FFE71B989DF85010FFF7AF
:105A600027FBFFE715980007002808D5FFE71998DE
:105A7000149900EB41100821C0F80819FFE71598A8
:105A8000C006002808D5FFE71998149900EB4110CB
:105A90001021C0F80819FFE715984006002808D51E
:105AA000FFE71998149900EB41104021C0F808193C
:105AB000FFE715988007002824D5FFE71A98149966
:105AC0000CF052FB1B99DDF850E00EEBCE0E01EB13
:105AD0008E01143118911899C97801290A9009D1B9
