:020000040800F2
:1000000030AB0120C1010008959C0008E184000884
:10001000919C0008D51B0008C90A010800000000D7
:1000200000000000000000000000000039C90008C6
:1000300019210008000000009DA0000865CB000801
:10004000DB010008DB010008DB010008DB01000820
:10005000DB010008DB010008DB010008DB01000810
:10006000DB010008DB010008DB010008DB01000800
:10007000DB010008DB010008DB010008DB010008F0
:10008000DB010008DB010008DB010008DB010008E0
:10009000DB010008DB010008DB010008DB010008D0
:1000A000DB010008DB010008DB010008DB010008C0
:1000B000DB010008DB010008DB010008DB010008B0
:1000C000DB010008DB010008DB010008DB010008A0
:1000D000DB010008E5D10008F5D10008DB010008CC
:1000E00075230008DB010008DB010008DB010008C4
:1000F000DB010008DB010008DB010008DB01000870
:10010000DB01000879BC0008DB010008DB01000806
:10011000DB010008DB010008DB010008DB0100084F
:10012000DB010008DB010008DB010008611F00089B
:10013000DB010008DB010008DB010008DB0100082F
:10014000DB010008DB010008DB010008DB0100081F
:10015000DB010008711F0008DB01000805D2000860
:10016000DB010008DB010008DB010008DB010008FF
:10017000DB010008059D0008DB010008000000000D
:10018000DB010008DB010008DB010008DB010008DF
:10019000A5C40008DB010008DB010008DB01000842
:1001A000DB010008DB010008DB010008DFF80CD0F0
:1001B00000F09CFF004800470155010830AB0120CA
:1001C0000648804706480047FEE7FEE7FEE7FEE7F1
:1001D000FEE7FEE7FEE7FEE7FEE7FEE739CC0008B4
:1001E000AD0100082DE9F05F0546002092469B46D0
:1001F00088460646814640241BE02846414647463D
:10020000224600F0ABF953465A46C01A914110D32A
:1002100011461846224600F092F92D1A67EB0108A4
:100220004F4622460120002100F089F917EB000912
:100230004E41201EA4F10104DFDC484631462A4627
:100240004346BDE8F09F40EA01039B0703D009E065
:1002500008C9121F08C0042AFAD203E011F8013BB2
:1002600000F8013B521EF9D27047D2B201E000F80B
:10027000012B491EFBD270470022F6E710B513464A
:100280000A4604461946FFF7F0FF204610BD30B578
:1002900005462A460B4612F8010B13F8014B08B12C
:1002A000A042F8D01CB1002802D06D1CF1E728460E
:1002B00030BD10B5044604E00B7800F8013B03B1F3
:1002C000491C521EF8D2204610BD421C10F8011BDA
:1002D0000029FBD1801A704710B5002200E0521CA3
:1002E000835C8C5CA34201D1002BF8D1D8B2E1B27F
:1002F000401A10BD10B5044600E0401C0378002BE6
:10030000FBD100E0401C521E04D311F8013B0370E6
:10031000002BF7D100210170204610BD30B50546F5
:100320000020034600E05B1C934205D2EC5CC85CF5
:10033000201A01D1002CF6D130BD000070B50F4D50
:1003400000B92868002412E00A4602E09E4203D069
:10035000521C1378002BF9D1DAB2224305D02BB10D
:1003600024B1002100F8011B04E00446401C06787B
:10037000002EE9D12860204670BD0000000000205A
:1003800030B50546002008E00A4602E0A34207D047
:10039000521C1378002BF9D1401C2C5C002CF3D19B
:1003A00030BD00000FB400B58DB010A909900B90BE
:1003B00000914FF0FF300A9000200C900548069005
:1003C000054807906A4609A80F9900F04FFC0DB048
:1003D0005DF814FB890C0008A70C000870B50646F0
:1003E00015F096FD046805460A220021304600F00B
:1003F0006BFC2C6070BD2DE9FE4F81EA030404F014
:10040000004421F0004100944FF0000B23F0004322
:1004100050EA01045ED052EA03045BD0C3F30A54ED
:10042000C1F30A552C44A4F2F3340194A0FB025406
:10043000C1F3130141F48011C3F3130343F4801398
:1004400001FB024400FB034E840A970A44EA8154EC
:1004500047EA8357A4FB076802958D0A05FB0785C9
:100460004FEA932C04FB0C542705029D4FEA0658D3
:1004700047EA1637B5EB08056EEB070C870E920EB0
:1004800047EA811742EA8312A7FB0201B6EB0B0190
:1004900064EB00042B0D43EA0C335E1844EB1C5054
:1004A000DA465146E7FB0201C5F313044FEA0B336A
:1004B00043EA14534FEA0432019C43EA0603A4F1D1
:1004C0000C040294009CCDE900B400F07BFC03B066
:1004D000BDE8F08F00200146F9E701F0004330B499
:1004E00021F0004150EA010206D00A0DA2F5607227
:1004F000C1F31301002A02DC30BC00207047440F16
:1005000044EAC104C100E01830BC00EBC25000F066
:1005100013BC30B50B46014600202022012409E01F
:1005200021FA02F59D4205D303FA02F5491B04FAAC
:1005300002F52844151EA2F10102F1DC30BD202A8B
:1005400004DB203A00FA02F1002070479140C2F12A
:10055000200320FA03F3194390407047202A04DB5C
:10056000203A21FA02F00021704721FA02F3D0402C
:10057000C2F1200291400843194670472DE9FF4F10
:100580001C4681B00021D4E9016791464FF0FF3548
:100590008A468846A1696D1C02988847216A83466D
:1005A00088470028F6D1BBF1FF3F0CD026F4C06687
:1005B000002F1ADD700615D5BBF12B0F0AD0BBF149
:1005C0002D0F0FD104E04FF0FF3005B0BDE8F08FE4
:1005D00046F48066A1696D1C029888477F1E834699
:1005E000002F02DDBBF1300F03D0B9F1000F2AD08C
:1005F00025E0A1696D1C46F400767F1E02988847AD
:100600008346002F05DDBBF1780F06D0BBF1580FF4
:1006100003D0B9F1000F10D011E0B9F1000F02D0F2
:10062000B9F1100F0BD1A1696D1C26F400767F1E65
:10063000029888478346102000E0082081464FEA50
:10064000E970009017E00A20F8E74346AAFB092862
:1006500003FB0980DDF800C07F1E0AFB0C0112EBD2
:100660000B0A41EBEB78A16946F4007605F1010530
:10067000029888478346002F06DD4946584600F019
:1006800066FD5FEA000BE0D5E16902988847B00596
:1006900002D46FF0010098E7F00718D1700610D56A
:1006A0007005514605D50023D1EB030163EB080229
:1006B00000E042462068031D23600068C0E9001284
:1006C00005E02068011D21600068C0E900A82846F7
:1006D0007BE72DE9FF5F1D464FF0FF3BD5E9014663
:1006E00091465F464FF00008A9697F1C0198884732
:1006F000296A824688470028F6D1BAF1FF3F0CD01C
:1007000024F4C064002E19DD600614D5BAF12B0F55
:1007100009D0BAF12D0F0ED103E0584604B0BDE860
:10072000F09F44F48064A9697F1C01988847761E75
:100730008246002E02DDBAF1300F03D0B9F1000F6E
:1007400026D032E0A969761E44F400747F1C01981B
:1007500088478246002E05DDBAF1780F06D0BAF13F
:10076000580F03D0B9F1000F10D01EE0B9F1000FFF
:1007700002D0B9F1100F18D1A969761E24F40074C3
:100780007F1C019888478246102002E0082000E084
:100790000A20814609E008FB0908A969761E44F48D
:1007A00000747F1C019888478246002E05DD49466B
:1007B000504600F0CCFC0028EDDAE9690198884742
:1007C000A00502D46FF00100A8E7E00725D160067C
:1007D00013D5600502D5C8F1000000E04046296845
:1007E0000A1D2A600968220501D5087015E0220754
:1007F00001D5088011E008600FE02868011D29601C
:100800000068210502D580F8008006E0210702D5A6
:10081000A0F8008001E0C0F8008038467EE72DE9AE
:10082000FF5FD2E901A74FF000089169994614468D
:10083000DDF838B0464601988847054659EA0B006E
:1008400005D009E0A169761C019888470546216A10
:10085000284688470028F5D1681C03D05FEACA7093
:1008600005D015E04FF0FF3004B0BDE8F09F2068E0
:10087000011D2160D0F800800AE05FEACA7001D152
:1008800008F8015BA169761C7F1E01988847054620
:10089000002F1ADD681C18D0B9F1000F0DD0E81731
:1008A00005EBD060421120F01F0059F822102A1ADF
:1008B000012090400142E0D107E0BBF1000FDCD104
:1008C000216A284688470028D7D0E16901988847DF
:1008D000BBF1000F07D1002E05DD5FEACA7002D11F
:1008E000002188F80010A068B84203DDBBF1000FBA
:1008F00003D017B16FF00100B6E73046B4E700004F
:100900002DE9FF4F087883B09946FF2805D0491C90
:100910002D2804D00024002008E000200BE0012452
:10092000F9E700EB800003EB4000491C0B78FF2B3C
:10093000F7D104B1404200230293147819461D46B2
:100940002D2C01D02B2C04D1521C2D2C13D0002483
:100950000294AA461478FF2C0FD00A25A3FB057831
:1009600001FB05814FF0000C03FB0C11521CE31935
:100970004AEB0101EEE70124EAE7814453EA010072
:1009800002D019F5C87F06DA03980021C0E90011EA
:1009900007B0BDE8F08F0025AE4E2F46DFF8B882D5
:1009A000184600F0C8FDCDE90001B9F1000002DAF7
:1009B000C9F1000400E004460023A74A1AEB030B28
:1009C00042EB045A12E0E00707D02A463346384685
:1009D0004146FFF710FD074688462A463346104633
:1009E0001946FFF708FD05460E466410002CEAD1B3
:1009F000DDE90001B9F1000F5A46534606DA00F06E
:100A0000D6FA3A46434600F0D2FA05E0FFF7F3FC87
:100A10003A464346FFF7EFFC029A0AB181F00041E3
:100A2000039AC2E90001B3E72DE9FF4F1F468DB0DD
:100A3000D7E901464FF0FF382E2045464FF0000918
:100A40000B90B9696D1C0E988847396A82468847B1
:100A50000028F6D1BAF1FF3F0AD024F4D064002E6A
:100A600011DDBAF12B0F08D0BAF12D0F0BD102E036
:100A7000404611B08DE744F48064B9696D1C0E984E
:100A800088478246761E6946600501D52D2000E024
:100A90002B208DF8000001F1010B0DF1200809E079
:100AA000B9696D1C0E98884782460F9844F400740B
:100AB000761E0560002E02DDBAF1300FF0D00B99E2
:100AC0008A453ED144F0800406E00F99681CA9F1E4
:100AD000010944F400740860B9696D1C761E0E9813
:100AE000884782463028F0D02BE00B998A4505D103
:100AF000200603D444F08004761E18E0504615F01A
:100B0000DDFA08B30DF11302761EAAF1300044F4A9
:100B10000074934506D20BF8010B200607D5A9F106
:100B2000010003E0200602D409F101008146A0057E
:100B300002D50F99681C0860B9696D1C0E9888472A
:100B40008246002ED1DC53E0002E51DDBAF1650F54
:100B500002D0BAF1450F4BD1A00549D5B9696D1C3A
:100B600024F44074761E0E9888478246002E0CDDD1
:100B70002B2804D0BAF12D0F07D144F48074B96941
:100B80006D1C0E9888478246761EE00501D52D2102
:100B900000E02B2108F8011BCDF82C8021E00DF19D
:100BA0002901761E44F4007488450CD2AAF1300065
:100BB00010F0FF0088F8000002D10B99884509D990
:100BC00008F1010806E0E00501D5244801E042F201
:100BD0000F708146B9696D1C0E98884782460F9840
:100BE0000560002E04DD504615F068FA0028D6D1C5
:100BF000F9690E988847FF208BF8000088F80000FC
:100C00000020069007904B466A4608A906A8FFF701
:100C100077FEA00502D46FF001002AE714F0240F3C
:100C20000AD0E00714D1DDE906123868031D3B60E5
:100C30000068C0E900120BE0DDE90601FFF74DFC9A
:100C40000146E00704D13868021D3A60006801607F
:100C500028460EE7000014400000F03FF1D8FFFFE7
:100C6000026811441378016018467047D160044946
:100C700051610449116200211161114600F076BAF8
:100C8000610C00083D110008426842B1016811F88A
:100C9000013B23B1521EC0E90012184670470121E2
:100CA000C160881E704742685AB1C368016843B981
:100CB00083688B4205D0491E521CC0E900120020F7
:100CC00070474FF0FF3070472DE9F04791460F46CF
:100CD00080460446002614F8015B2DB100F02AFA84
:100CE0000068405DC007F6D12B2D02D02D2D18D005
:100CF000641E4A463946204600F0CEFB27B13968CB
:100D0000A14201D1C7F8008071054FF002040BD554
:100D10004042002803DD15F0FBF80460A007BDE8A1
:100D2000F08746F48066E4E70028F8DA15F0F0F87A
:100D300004606FF00040F2E70029A8BF7047401C34
:100D4000490008BF20F00100704710B4B0FA80FCE1
:100D500000FA0CF050EA010404BF10BC704749B11E
:100D6000CCF1200421FA04F411FA0CF118BF01218E
:100D700021430843A3EB0C01CB1D4FEA00614FEA6E
:100D8000102042BF002010BC704700EBC35010443D
:100D90000029A4BF10BC7047401C490008BF20F0C8
:100DA000010010BC704710B5141E73F1000408DA7E
:100DB000401C41F1000192185B411A4301D120F01F
:100DC000010010BD2DE9F04D92469B4611B1B1FADC
:100DD00081F202E0B0FA80F220329046FFF7AFFBDA
:100DE00004460F4640EA0A0041EA0B0153465A46C0
:100DF000084313D0114653EA010019D0C8F140024C
:100E00005046FFF7ABFB05460E4650465946424654
:100E1000FFF795FB084305D0012004E02046394642
:100E2000BDE8F08D0020054346EAE0762C433743C9
:100E30000A986305E40AA0EB08000022FD0A44EAD0
:100E400047540A3002D500200146E9E70105101990
:100E50006941DDE9084500196941BDE8F04DA2E7A7
:100E60002DE9FE4F804681EA0300C00F0C4600903A
:100E700021F0004123F00045B8EB0200A94105D262
:100E80004046214690461C460B46024623F0004051
:100E9000104347D0270DC7F30A00C3F30A5102904D
:100EA000401A019040286BDAC3F3130040F4801B12
:100EB0000098924620B10023D2EB030A63EB0B0BA0
:100EC00001985946C0F140025046FFF738FB0646EC
:100ED0000D4650465946019A00F01AF910EB0800E9
:100EE0006141002487EA115284EAE7731A4340D033
:100EF000009A62B3019A012A4FEA075215DC001BDF
:100F000061EB02014FF0004202EA0752CDE90042D4
:100F1000001C41F5801132462B46FFF753FF03B00A
:100F2000BDE8F08F40462146F9E7001B61EB020166
:100F3000001C41F5801300185B412018A2F5001732
:100F400047EB030140EAD570B6196D4111E06D0819
:100F50004FEA360645EAC0754FEA0752001B61EBBF
:100F60000201001C41F5801149084FEA30000019C8
:100F7000514132462B4603B0BDE8F04FFFF713BF97
:100F80000098012240000023D0EB020263EBE073E3
:100F9000009821464FEAE074B8EB000061EB0401D1
:100FA000E9E783F000435BE781F0004158E72DE972
:100FB000F04D81EA030404F0004B21F00045144693
:100FC0004FF0000A23F0004150EA050220D054EA15
:100FD00001021DD0C5F30A570246C5F31303C1F33E
:100FE0001300C1F30A5640F4801543F48013A7EBB5
:100FF0000608101BD64608F2FD3873EB050002D335
:1010000008F1010801E092185B41B8F1000F03DA22
:1010100000200146BDE8F08D00204FF48011064607
:1010200084460EE0171B73EB050705D3121B63EB19
:10103000050306434CEA010C49084FEA30009218B8
:101040005B4150EA0107EDD152EA030012D082EA77
:10105000040083EA0501084305D0101BAB4106D20A
:101060000122002306E000224FF0004302E06FF06F
:10107000010253101AEB06004CEB085110EB0A006A
:1010800041EB0B01BDE8F04DFFF78DBEC1F30A52F5
:10109000C1F3130140F2FF3341F480119A4202DAA6
:1010A00000200146704740F233439A42A2F2334295
:1010B00002DC5242FFF752BAFFF741BA30B5041EC4
:1010C00071F1000404DB4FF00044404264EB010185
:1010D000141E73F1000405DB1C464FF0004352421E
:1010E00063EB0403994208BF904230BD064C074DA4
:1010F00006E0E06840F0010394E8070098471034E8
:10110000AC42F6D3FFF756F81C2004083C20040834
:10111000202A06DBCB17203A41FA02F043EAE073BB
:1011200006E041FA02F3D040C2F1200291400843A8
:1011300019467047004870479468010810B5044686
:10114000FFF7F8FF0068005D00F0010010BD3A28CD
:1011500000D2303820F02002412A01D3A2F137001A
:10116000884201D34FF0FF30704700002DE9F34F64
:101170008BB04FF0000801F10C000C464FF0010B52
:1011800046460DF1080A01906269012101989047D5
:10119000051E2DD0252D2CD0216A8847C0B162694B
:1011A000012101989047216A88470028F7D1411E04
:1011B00062690198904700E0761CA1690B98884706
:1011C000216A88470028F7D1E1690B988847DBE757
:1011D000A1690B9888470746A84201D1761CD3E73E
:1011E000E1690B9888477F1C02D1B8F1000F6FD0DE
:1011F00046E1002762693D463946019890472A2812
:1012000004D162690121019890470125DFF8849299
:101210006269012101989047A0F130010A290AD2A0
:101220004F45E5DC07EB870100EB4107303FDFD49A
:1012300045F01005ECE7E90601D46FF000476C2893
:101240000AD04C2814D0682815D06A280DD07428EC
:101250001CD07A281AD01DE06269012101989047BC
:101260006C2802D045F0040514E045F002050DE0BD
:1012700045F020050AE0626901210198904768283D
:1012800002D045F0080505E045F4006562690121DA
:1012900001989047C4E9015765283DD019DC5828CA
:1012A0007AD00CDC452837D004DC252826D041280C
:1012B00031D131E046282FD047282CD12CE05B28B3
:1012C00077D0612828D063287CD0642823D15AE0C5
:1012D000D0E06F2848D008DC66281DD067281BD0D6
:1012E000692821D06E2816D127E0702845D07328B0
:1012F00068D0752847D078280DD14DE0A1690B98AA
:101300008847054625283FF469AFE1690B9888476F
:101310006D1C3FF46AAFB3E023466A466FF00100EC
:101320000B99FFF781FB9EE045F040006060A80745
:1013300023464FF0000236D43EE0E8077FF447AF83
:101340002068011D21600068290501D506701BE792
:10135000290701D5068017E7A90703D5F117C0E9CA
:10136000006111E706600FE745F040006060A807E4
:1013700023464FF0080216D41EE040F60E0125EA7F
:101380000100606016E045F040006060A807234659
:101390004FF00A0207D40FE045F040006060A80754
:1013A00008D5234610226FF001000B99FFF7E6F8ED
:1013B00059E007E0234610226FF001000B99FFF778
:1013C00088F950E04FF000094F464B46632802D0A1
:1013D0005B2806D040E0E80601D40120A060012788
:1013E0003AE062690121019890475E2805D14FF0EB
:1013F00001096269494601989047216939B900217C
:101400000A46534643F82120491C0829FADBB0B3A9
:10141000216969B9C11700EBD16253110AEB83014D
:1014200022F01F02821A01200B68904003430B60D8
:1014300062690121019890475D28E8D1B9F1000F58
:1014400009D00020514651F82020D24341F82020F5
:10145000401C0828F7DB02AB224600976FF0010022
:101460000B99FFF7DCF900280CDA401C08D1BBF11E
:10147000000F05D04FF0FF300DB0BDE8F08FFFE753
:101480004046F9E7E90701D108F1010806444FF0A9
:10149000000B79E6CCCCCC0C2DE9F05F82460078CD
:1014A000002715468B460AF10104B946302801D0C1
:1014B0009DB113E014F8010B0127782803D05828B8
:1014C00001D045B10AE00DB1102D07D1002710253C
:1014D00014F8010B02E0082500E00A250026B046BA
:1014E0000EE005FB080005FB06F1012701EB1046A5
:1014F0001FFA80F8B6F5803F00D3B94614F8010B07
:101500002946FFF724FE0028EBDABBF1000F05D0D7
:101510000FB1641E00E05446CBF80040B9F1000F53
:1015200006D014F0F5FC02210160C81EBDE8F09F52
:1015300048EA0640FAE70EB540F233420292002232
:10154000CDE900221346FFF73DFC03B000BD30B5E6
:101550008C1810F8012B12F00F0301D110F8013B89
:10156000120906D110F8012B03E010F8015B01F815
:10157000015B5B1EF9D101E001F8013B521EFBD17A
:10158000A142E6D3002030BD80B58AB00890002289
:101590008DF81C20069242208DF818008DF8192035
:1015A00048208DF81A0008994868098901F0F6FE6C
:1015B0000898006806A903224FF47A7305F0C0FF6B
:1015C00058B1FFE70899486809890122059201F09E
:1015D000E5FE05988DF8270088E008994868098994
:1015E0000122049201F0DAFE022001F059FC602091
:1015F0008DF81800089948680989002201F0CEFE8C
:10160000049A0898006806A94FF47A7305F098FFC9
:1016100058B1FFE70899486809890122039201F04F
:10162000BDFE03988DF8270060E008994868098995
:10163000012201F0B3FE0FF049FA42208DF81800A4
:1016400000228DF8192048208DF81A000899486862
:10165000098901F0A3FE0898006806A903224FF447
:101660007A7305F06DFF58B1FFE70899486809895A
:101670000122029201F092FE02988DF8270035E0D7
:101680000899486809890122019201F087FE022029
:1016900001F006FC61208DF8180008994868098956
:1016A000002201F07BFE019A0898006806A94FF419
:1016B0007A7305F045FF58B1FFE708994868098932
:1016C0000122009201F06AFE00988DF827000DE0DB
:1016D000089948680989012201F060FE0FF0F6F9C7
:1016E000089800F0C1F98DF82700FFE79DF8270062
:1016F0000AB080BD80B58AB00990099949F2B83026
:10170000C2F201000860099941F20000C4F202002F
:10171000486009994FF400600881099940F600403B
:10172000C4F20200C860099A4FF4805111820999ED
:101730004861099A4FF400511183002103910891E7
:1017400007910691059104914FF480420492012281
:10175000009205920691079104A9019101F0FAFB0C
:10176000009A09994868098901F018FE009A0199C0
:101770000398099B1B8B0493059206900790099888
:10178000406901F0E7FB039A09994869098B01F068
:1017900005FE01990398099A128A04924FF40412E3
:1017A000059206900998C06801F0D4FB039A28209E
:1017B0000290114602F046FF029802F039FF0398AA
:1017C0000AB080BD80B586B0049003910FF07EF919
:1017D00020B1FFE701208DF8170029E000220292D6
:1017E00004994868098901F0D9FD0498006802A9A4
:1017F00004224FF47A7305F07BFD58B1FFE704999A
:10180000486809890122019201F0C8FD01988DF80C
:1018100017000DE0049948680989012201F0BEFD16
:10182000029800BA0399086000208DF81700FFE7BE
:101830009DF8170006B080BD80B584B0039040F6D7
:101840000040C4F2020000904FF480410191002258
:1018500001F0A4FD0120029001F022FB0098019903
:10186000029A01F09BFD029801F01AFB0FF02EF98D
:1018700004B080BD80B582B000900098FFF73AFFB9
:1018800020B1FFE701208DF8070015E00098FFF771
:10189000D3FF20B1FFE701208DF807000CE000988E
:1018A000FFF772FE20B1FFE701208DF8070003E08B
:1018B00000208DF80700FFE79DF8070002B080BD0B
:1018C00080B584B00020039048F65830C2F2010081
:1018D00003A9FFF777FF08B1FFE7C2E041F2D002AA
:1018E000C2F2000247F21870C0F20100105C47F625
:1018F000085110FB01200290029847F6045140580D
:10190000B0F5FA5FC0F09680FFE702994FF4FA4213
:101910000120885440F66861C2F200010868013075
:10192000086041F2D000C2F2000047F21871C0F224
:101930000101405C01304AF6AB21CAF6AA21A0FBA6
:10194000011202F0FE0101EB5201401A8DF807006E
:101950009DF807008DF8060000208DF80500FFE7D0
:101960009DF8070041F2D002C2F2000247F608518A
:1019700010FB01204FF4FA41405CC007A0B9FFE71B
:101980009DF8070041F2D002C2F2000247F608516A
:1019900010FB012047F60151405CC00720B9FFE76A
:1019A00001208DF8050016E09DF8070001304AF689
:1019B000AB21CAF6AA21A0FB0121490801EB410194
:1019C000401A8DF80700FFE79DF807009DF8061004
:1019D0008842C5D1FFE79DF8050098B9FFE741F2BD
:1019E000D001C2F2000147F22072C0F20102885811
:1019F0000130885040F66C61C2F200010868013085
:101A000008602EE09DF8070041F2D002C2F2000209
:101A100047F21871C0F2010150549DF8070047F6D3
:101A2000085110FB01200290029947F60452002051
:101A30008850FFE70398029947F604528B5841F803
:101A40002300029988580130885041F2D001C2F237
:101A5000000147F21C72C0F2010288580130885020
:101A6000FFE704B080BD000080B586B00490002080
:101A70008DF80C00029040218DF8081002218DF89D
:101A800009108DF80A0040F21C10C2F20000008814
:101A9000014601917D280ED0FFE70198FA280ED06B
:101AA000FFE70198B0F57A7F0DD0FFE70198B0F518
:101AB000FA6F0CD00FE002208DF80B001AE00A201C
:101AC0008DF80B0016E01A208DF80B0012E0222092
:101AD0008DF80B000EE022208DF80B0040F21C1058
:101AE000C2F2000001884CF2B670C0F6020014F099
:101AF000E5F9FFE70F208DF80C0004994868098983
:101B0000002201F04BFC0498006802A905224FF462
:101B10007A7305F015FD58B1FFE704994868098903
:101B20000122009201F03AFC00988DF8170009E0BC
:101B3000049948680989012201F030FC00208DF8E1
:101B40001700FFE79DF8170006B080BD80B582B092
:101B500041F2D000C2F2000047F22871C0F2010148
:101B6000FEF78AFB00200190FFE70198022820DCA5
:101B7000FFE7019841F2D003C2F2000347F6085292
:101B800000FB02314FF4FA4C002001F80C000199DF
:101B900001FB023147F6015C01F80C00019901FBE1
:101BA000023147F604528850FFE701980130019056
:101BB000DBE741F2D001C2F2000147F21872C0F235
:101BC00001020020885447F21972C0F201028854C1
:101BD00002B080BDFFE7FEE780B58AB049F29830D9
:101BE000C2F20100029005A90022019204F02AFF2E
:101BF000019A029804A904F0E9FE40F21910C2F219
:101C0000000000789DF8141088420AD1FFE740F2E6
:101C10001810C2F2000000789DF8121088423CD0E3
:101C2000FFE74CF6A920C0F6020014F047F90AF0CD
:101C3000A1FE38B9FFE74CF63810C0F6020014F0E8
:101C40003DF92AE000F0A0FB0390039838B9FFE7C4
:101C50004CF63020C0F6020014F030F91DE0039974
:101C600049F2F040C2F201004FF40C72FEF7EBFAB9
:101C700040F69861C2F20001012008709DF814003E
:101C800040F21911C2F2000108709DF8120040F2F2
:101C90001811C2F200010870FFE70AB080BD000011
:101CA00080B596B04CF2C860C0F6020014A915AA1F
:101CB00010F05EFB8DF84B009DF84B0048B1FFE73C
:101CC0009DF84B104CF2AB10C0F6020014F0F6F881
:101CD000D0E01598806902381390159840890D90CE
:101CE00013980D99A0FB0110400240EAD15049021F
:101CF0001091119014980D99A0FB0110400240EA38
:101D0000D15049020E910F9010991198090D41EA96
:101D10000032030D0E980F99000D40EA01304FEA92
:101D2000115C6946C1F804C008604CF26910C0F645
:101D3000020014F0C3F848F63440C2F2010001F08A
:101D4000F3FE042830D1FFE748F63440C2F2010028
:101D500006A901F0C7FE0B980C99A0FB01010591A3
:101D60000490149815994989A0FB0110400240EA9B
:101D7000D15049020291039004990598090D41EA56
:101D80000032030D02980399000D40EA01304FEA3A
:101D9000115C6946C1F804C008604CF23D10C0F601
:101DA000020014F08BF8FFE70E9A0F9840F21C1116
:101DB000C2F200014968B2EB015270EB113059D206
:101DC000FFE74CF20510C0F6020014F077F8FFE7C9
:101DD0000E9A0F9840F21C11C2F200014968B2EB52
:101DE000015270EB113044D2FFE700F097F98DF803
:101DF0004B009DF84B00B0B1FFE79DF84B00042865
:101E000007D1FFE74CF2AF60C0F6020014F056F8BD
:101E100008E09DF84B104CF2DD10C0F6020014F003
:101E20004DF8FFE725E04CF2C860C0F6020014A9A7
:101E300015AA10F09DFA8DF84B009DF84B0008B1E3
:101E4000FFE716E014980D99A0FB0110400240EA4C
:101E5000D15049020E910F900E990F98090D41EA49
:101E60000032030D4CF22310C0F6020014F026F8E5
:101E7000AEE7FFE716B080BD80B5ADF5127D4CF240
:101E80003571C0F6020106A8012211F06DFB8DF834
:101E900017009DF8170050B9FFE706A810F018FAD0
:101EA0004CF28C40C0F6020014F008F855E04CF2F9
:101EB000C100C0F6020014F001F84CF23571C0F612
:101EC000020106A80A2211F04FFB8DF817009DF8B9
:101ED000170048B1FFE79DF817104CF23620C0F606
:101EE000020013F0EBFF38E04CF2A940C0F602000C
:101EF00004900020039004980290FEF7E6F90299FE
:101F0000024606A803AB12F01DF98DF817009DF8E4
:101F1000170088B9FFE7039801900498FEF7D5F9F8
:101F200001460198884207D1FFE74CF27340C0F6A2
:101F3000020013F0C3FF08E09DF817104CF2552083
:101F4000C0F6020013F0BAFFFFE706A8009011F0F8
:101F5000E1FF009810F0BCF9FFE70DF5127D80BDA0
:101F600080B548F6D430C2F2010000F0EFFC80BD2D
:101F700080B548F67430C2F2010000F0E7FC80BD85
:101F800082B001900198007810384AF6AB21CAF669
:101F9000AA21A0FB011000090090009946F6E0007C
:101FA000C0F60100405C0199C8650098042807D379
:101FB000FFE701990868042262F30900886506E0DA
:101FC0000199086840F2FF3290438865FFE7019865
:101FD000806D02B07047000086B0059000208DF83B
:101FE00013000598806A03900598806910BBFFE78D
:101FF0000398029003281BD80299DFE801F0020D34
:102000000218059890F82F00C00720B1FFE70120C3
:102010008DF81300FFE70CE00598C06AB0F1C07FAF
:1020200004D1FFE701208DF81300FFE701E000E095
:10203000FFE745E005988069B0F5005F25D1FFE72F
:102040000398019003281ED80199DFE801F00206E9
:10205000021101208DF8130016E0059890F82F006A
:10206000C00720B1FFE701208DF81300FFE70BE068
:102070000598C06AB0F1C07F04D1FFE701208DF858
:102080001300FFE700E0FFE719E003980090032842
:1020900004D3FFE70098032804D00EE001208DF858
:1020A00013000BE0059890F82F00C00720B1FFE760
:1020B00001208DF81300FFE700E0FFE7FFE7FFE7EF
:1020C0009DF8130006B0704784B00390029101920E
:1020D000009303980168086820F480200860009845
:1020E00003990968486003988068402809D1FFE790
:1020F0000198039909688860029803990968C86083
:1021000008E00298039909688860019803990968B2
:10211000C860FFE704B070477047000080B5ADF5B8
:102120004C7D32A84FF48C71FEF7A6F802A88021EE
:10213000FEF7A2F840F21C10C2F20000037A4CF243
:102140004372C0F6020222A8402113F0C7FE4CF2EF
:10215000C461C0F60201BEA811F0DCFB8DF82E03AD
:102160009DF82E0328B1FFE79DF82E038DF82F036D
:1021700083E0FFE7BEA878A911F09CFD8DF82E033F
:102180009DF82E0320B9FFE79DF8F60108B9FFE797
:102190005AE078A816304CF26D71C0F60201FEF7D5
:1021A00076F858B9FFE778A816304CF21771C0F6E8
:1021B0000201FEF76CF8002845D0FFE79DF8DE002D
:1021C00068B3FFE7BDF8E401BDF8CC10884226DB18
:1021D000FFE7BDF8E401BDF8CC10884207D1FFE766
:1021E000BDF8E601BDF8CE10884218DBFFE7BDF868
:1021F000E401BDF8CC10884224D1FFE7BDF8E60128
:10220000BDF8CE1088421DD1FFE778A8163032A95C
:102210001631FEF761F8B0F1FF3F13DCFFE732A89B
:1022200078A901914FF48C72FEF70DF8019800F136
:1022300016034CF22F72C0F6020202A8802113F09E
:102240004DFEFFE7FFE795E7BEA810F06BF89DF89D
:10225000080070B1FFE74CF2B730C0F6020002A9E7
:10226000009113F02BFE009811F0C8FE8DF82F039B
:1022700003E004208DF82F03FFE79DF82F030DF5F1
:102280004C7D80BD80B582B00190019948F6344004
:10229000C2F2010001F026FC02B080BD80B584B01E
:1022A0000290019100920299019A009B48F63440F5
:1022B000C2F2010001F0B0FF20B1FFE701208DF86C
:1022C0000F0009E0FFE700F00BF808B1FFE7FAE7BD
:1022D00000208DF80F00FFE79DF80F0004B080BDCF
:1022E00080B582B04FF6FF70ADF80400FFE7BDF88F
:1022F0000400411EADF8041088B1FFE748F63440F1
:10230000C2F2010001F010FC042804D1FFE7002014
:102310008DF8070007E0012000F0C2FDE7E701208B
:102320008DF80700FFE79DF8070002B080BD0000B0
:1023300080B584B00290019100920299019A009BAD
:1023400048F63440C2F2010002F056F820B1FFE72F
:1023500001208DF80F0009E0FFE7FFF7C1FF08B18A
:10236000FFE7FAE700208DF80F00FFE79DF80F0068
:1023700004B080BD80B54FF4805000F0CFFD80BD2B
:1023800072B6FFE7FEE7000010B5AAB040F2601099
:10239000C2F200004FF40C71FDF76EFF49F2983065
:1023A000C2F2010008900BA90022079204F04AFB38
:1023B000079A08980AA904F009FB9DF82B0040F23F
:1023C0001B11C2F2000108709DF8290040F21A1199
:1023D000C2F2000108709DF82A0040F21811C2F202
:1023E000000108709DF82C0040F21911C2F20001A2
:1023F000087040F21C10C2F20000037A4CF24372E3
:10240000C0F602020DF143000990202113F066FD91
:10241000099810F0CBFA8DF8A3009DF8A30090B1B5
:10242000FFE79DF8A30008280DD0FFE79DF8A32043
:102430004CF2B820C0F602000DF1430113F03EFD4E
:10244000002029907AE09DF829209DF82A309DF8F7
:102450002B0000F5FA609DF82CC09DF82DE09DF84A
:102460002E4069464C61C1F810E0C1F80CC08B6089
:102470004A6008604CF25272C0F602020DF163002D
:10248000069040210DF1430313F028FD069940F218
:102490006010C2F20000122211F066F88DF8A3005D
:1024A0009DF8A30068B1FFE79DF8A3204CF29720A8
:1024B000C0F602000DF1630113F000FD0020299029
:1024C0003CE040F26010C2F20000C16810F04AF82F
:1024D0008DF8A3009DF8A30088B1FFE79DF8A31035
:1024E0004CF29810C0F6020013F0E8FC40F26010C5
:1024F000C2F200000FF0ECFE002029901EE040F236
:102500006010C2F20000C06848B9FFE74CF28B309F
:10251000C0F602000DF1630113F0D0FC08E04CF2AC
:10252000A130C0F602000DF1630113F0C7FCFFE714
:1025300040F26010C2F200002990FFE729982AB00B
:1025400010BD000080B582B0019000910198009903
:10255000002200F003F802B080BD000084B00390B8
:1025600002918DF8072001208DF8060000208DF8DB
:10257000050040F67060C2F20000407A002827DCB7
:10258000FFE740F67063C2F200030093597A00201F
:10259000585403995A7A03EB820251609DF8071050
:1025A0005A7A1A441172597A4A1C5A728DF80510D7
:1025B0009DF805103031029A1170029A3A2151703B
:1025C000029A2F2191700299C8708DF80600FFE7DA
:1025D0009DF8060004B0704780B584B04CF2B57128
:1025E000C0F6020102910022104610F06BFF029922
:1025F00040F69C60C2F20000012210F063FF014629
:1026000049F22070C2F201000170007848B9FFE77A
:102610004CF26040C0F6020013F050FC0020039022
:1026200076E049F22070C2F2010000780D2860D1F6
:10263000FFE74CF2A100C0F6020013F03FFC694630
:102640004FF4007008604CF2C860C0F6020049F612
:102650002C13C2F201030321002210F0ABFA014651
:1026600049F22070C2F201000170007890BBFFE7D0
:102670004CF2E700C0F6020013F020FC40F69C602C
:10268000C2F200004CF2B571C0F60201012210F056
:1026900019FF014649F22070C2F201000170007872
:1026A00048B9FFE74CF25740C0F6020013F006FCB1
:1026B000002003902CE049F22070C2F20100017862
:1026C0004CF21B30C0F6020013F0F8FB4FF0FF3065
:1026D00003901DE049F22070C2F2010001784CF233
:1026E0000430C0F6020013F0E9FB4FF0FF30039016
:1026F0000EE049F22070C2F2010001784CF238304D
:10270000C0F6020013F0DAFB4FF0FF300390FFE752
:10271000039804B080BD000080B586B08DF8170026
:102720009DF8170041F2D002C2F2000247F60851AC
:1027300010FB01200490049847F604514058800093
:1027400002900499029A49F2F040C2F2010003ABF0
:1027500011F0F8FC8DF807009DF8070028B9FFE795
:102760000398029988420BD0FFE70299039A9DF8DB
:1027700007304CF6C220C0F6020013F09FFBFFE7C3
:1027800040F2D431C2F20001087801300870C0B2C2
:102790000A280DDBFFE749F2F040C2F2010011F018
:1027A000B9FB40F2D431C2F2000100200870FFE70B
:1027B00006B080BD80B584B047F61020C1F6FF702A
:1027C0000068039047F61420C1F6FF70006802907D
:1027D00047F61820C1F6FF70006801900199039830
:1027E00008440390039888B1FFE7039840F2E8019A
:1027F000C2F2000100910231082205F073FE009937
:1028000002981231042205F06DFEFFE704B080BD8E
:1028100080B584B002900298806D019000F0D6FDE2
:102820000090029890F8350002280DD0FFE7029939
:1028300080204865FFE70299002081F83400FFE717
:1028400001208DF80F0055E002980168086820F01B
:102850001600086002980168486920F0800048610D
:102860000298006C20B9FFE70298806C38B1FFE74E
:1028700002980168086820F008000860FFE70298E5
:102880000168086820F001000860FFE7029800680E
:102890000068C007C8B1FFE700F098FD0099401A32
:1028A000062811D3FFE702992020486502990320EA
:1028B00081F83500FFE70299002081F83400FFE736
:1028C00003208DF80F0015E0E0E70298C16D3F206E
:1028D0008840019988600299012081F83500FFE75E
:1028E0000299002081F83400FFE7FFE700208DF80F
:1028F0000F00FFE79DF80F0004B080BD82B000908C
:10290000009890F83500022807D0FFE70099802052
:10291000486501208DF807000EE00099052081F838
:10292000350000980168086820F001000860FFE7A2
:1029300000208DF80700FFE79DF8070002B0704700
:1029400081B000900098406D01B0704780B586B0AE
:1029500005900020039040F24800C2F20000006899
:1029600048F2B511C1F64E31A0FB0110800A029069
:102970000598806D0190019800680490049805996D
:10298000C96DC840000700281AD5FFE70598006800
:1029900000684007002812D5FFE70598016808681D
:1029A00020F0040008600598C16D08208840019956
:1029B00088600599486D40F001004865FFE7FFE732
:1029C00004980599C96DC840C007A0B1FFE70598F4
:1029D00000684069000600280CD5FFE70598C16D26
:1029E00001208840019988600599486D40F00200F7
:1029F0004865FFE7FFE704980599C96DC84040079F
:102A0000002814D5FFE705980068006880070028B3
:102A10000CD5FFE70598C16D0420884001998860B6
:102A20000599486D40F004004865FFE7FFE704980A
:102A30000599C96DC840C006002847D5FFE705982D
:102A400000680068000700283FD5FFE70598C16DC2
:102A5000102088400199886005980068006840034C
:102A600000281AD5FFE705980068006800030028D1
:102A700009D4FFE70598006C20B1FFE70598016CC9
:102A80008847FFE708E00598806C20B1FFE70598CC
:102A9000816C8847FFE7FFE716E00598006800684B
:102AA000C005002807D4FFE705980168086820F0F2
:102AB00008000860FFE70598006C20B1FFE7059863
:102AC000016C8847FFE7FFE7FFE7FFE704980599F8
:102AD000C96DC8408006002840F18D80FFE7059849
:102AE00000680068C006002840F18480FFE7059870
:102AF000C16D2020884001998860059890F83500C4
:102B0000052834D1FFE705980168086820F0160011
:102B1000086005980168486920F0800048610598C0
:102B2000006C20B9FFE70598806C38B1FFE7059885
:102B30000168086820F008000860FFE70598C16D8B
:102B40003F208840019988600599012081F835006F
:102B5000FFE70599002081F83400FFE70598006D34
:102B600020B1FFE70598016D8847FFE77BE00598F6
:102B700000680068400300281AD5FFE70598006840
:102B800000680003002809D4FFE70598406C20B1D5
:102B9000FFE70598416C8847FFE708E00598C06BA0
:102BA00020B1FFE70598C16B8847FFE7FFE720E00A
:102BB000059800680068C005002811D4FFE7059853
:102BC0000168086820F0100008600599012081F86C
:102BD0003500FFE70599002081F83400FFE7FFE7A3
:102BE0000598C06B20B1FFE70598C16B8847FFE7E8
:102BF000FFE7FFE7FFE70598406DA0B3FFE7059803
:102C0000406DC00730B3FFE70599052081F8350016
:102C100005980168086820F001000860FFE7039844
:102C2000013003900299884201D9FFE707E0FFE7EE
:102C3000059800680068C0070028F0D1FFE70599F3
:102C4000012081F83500FFE70599002081F8340064
:102C5000FFE7FFE70598C06C20B1FFE70598C16C5E
:102C60008847FFE7FFE706B080BD000080B586B06B
:102C700004900020039000F0A9FB0290049820B972
:102C8000FFE701208DF81700A3E00498406A08B11F
:102C9000FFE7FFE70499022081F83500FFE7049978
:102CA000002081F83400FFE704980168086820F0EC
:102CB00001000860FFE7049800680068C00790B151
:102CC000FFE700F083FB0299401A06280AD3FFE7CA
:102CD0000499202048650499032081F835008DF877
:102CE000170076E0E7E7049800680068039003980F
:102CF00048F23F01CFF2100108400390049900917F
:102D00004868D1F808C0CB680A6940EA0C0018434B
:102D100010434A6910438A691043CA691043096A1B
:102D200001430398084303900498406A042808D19B
:102D3000FFE70499C86A096B0143039808430390AD
:102D4000FFE70398049909680860049800684069DF
:102D50000390039820F0070003900498416A0398B9
:102D6000084303900498406A04281AD1FFE70498A6
:102D7000816A0398084303900498C06A80B1FFE712
:102D80000498FFF729F950B1FFE7049940204865FE
:102D90000499012081F835008DF8170019E0FFE74C
:102DA000FFE703980499096848610498FFF7E8F879
:102DB00001900498C16D3F20884001998860049972
:102DC00000204865049A012182F835108DF817001B
:102DD000FFE79DF8170006B080BD000080B588B001
:102DE000069005910492039300208DF80B0006983D
:102DF000806D0190FFE7069890F83400012804D117
:102E0000FFE702208DF81F0045E00699012081F8B8
:102E10003400FFE7FFE7069890F8350001282BD132
:102E2000FFE70699022081F83500069900204865E1
:102E300006980599049A039BFFF746F90698C16D19
:102E40003F2088400199886006980168086840F032
:102E5000160008600698006C38B1FFE70698016814
:102E6000086840F008000860FFE7069801680868F5
:102E700040F00100086009E0FFE70699002081F8B2
:102E80003400FFE702208DF80B00FFE79DF80B00F0
:102E90008DF81F00FFE79DF81F0008B080BD0000FF
:102EA00080B584B0039000F091FA029003980190ED
:102EB0000198013048B1FFE740F25710C2F200001C
:102EC0000178019808440190FFE7FFE700F07EFADF
:102ED0000299401A0199884201D2FFE7F6E704B04F
:102EE00080BD000080B582B0ADF80600BDF80600D8
:102EF00048F65831C2F20101098A88420CD1FFE735
:102F000040F66460C2F200000078032803D1FFE7B6
:102F1000FEF7D6FCFFE7FFE702B080BD80B582B0C8
:102F2000ADF8060043F61440C4F201000068BDF895
:102F3000061008420CD0FFE7BDF8060043F6144126
:102F4000C4F201010860BDF80600FFF7CBFFFFE700
:102F500002B080BD90B00F900E9100200C900B90AD
:102F60000A900D90FFE70D980F2800F2E881FFE727
:102F70000D99012088400C900E9800680C9908402B
:102F80000B900B980C99884240F0D481FFE70E9883
:102F9000406800F00300012807D0FFE70E98406862
:102FA00000F0030002282FD1FFE70F9880680A90F5
:102FB0000D984100032000FA01F10A9888430A9015
:102FC0000E98C0680D99490000FA01F10A9808436B
:102FD0000A900A980F9988600F9840680A900D9996
:102FE000012000FA01F10A9888430A900E9840687F
:102FF000C0F300100D9900FA01F10A9808430A90F5
:103000000A980F994860FFE70E98406800F00300A7
:10301000032818D0FFE70F98C0680A900D98410068
:10302000032000FA01F10A9888430A900E988068FC
:103030000D99490000FA01F10A9808430A900A988C
:103040000F99C860FFE70E98406800F0030002285F
:1030500026D1FFE70F980D996FF0030202EA5101A4
:103060000844006A0A900D9800F0070081000F20C4
:1030700000FA01F10A9888430A900E9800690D99A8
:1030800001F00701890000FA01F10A9808430A904B
:103090000A980F990D9B02EA530211440862FFE758
:1030A0000F9800680A900D984100032000FA01F182
:1030B0000A9888430A900E98406800F003000D9922
:1030C000490000FA01F10A9808430A900A980F99FA
:1030D00008600E9880798007002800F02A81FFE7B9
:1030E000FFE70020099043F64400C4F202000168A3
:1030F00041F480410160006800F480400990099823
:10310000FFE70D9820F0030043F60801C4F2010127
:1031100040580A900D9800F0030081000F2000FA3B
:1031200001F10A9888430A900F980021C4F2020125
:10313000884203D1FFE7002008907AE00F9840F220
:103140000041C4F20201884203D1FFE70120079049
:103150006CE00F9840F60001C4F20201884203D1EE
:10316000FFE7022006905EE00F9840F60041C4F2AF
:103170000201884203D1FFE70320059050E00F9839
:1031800041F20001C4F20201884203D1FFE70420AA
:10319000049042E00F9841F20041C4F202018842DB
:1031A00003D1FFE70520039034E00F9841F60001BA
:1031B000C4F20201884203D1FFE70620029026E014
:1031C0000F9841F60041C4F20201884203D1FFE7A3
:1031D0000720019018E00F9842F20001C4F20201AA
:1031E000884203D1FFE7082000900AE00F9942F2DD
:1031F0000042C4F202020A20914208BF0920009056
:10320000FFE700980190FFE701980290FFE702981E
:103210000390FFE703980490FFE704980590FFE709
:1032200005980690FFE706980790FFE70798089033
:10323000FFE70898C0B20D9901F00301890000FA78
:1032400001F10A9808430A900A980D9921F00301A8
:1032500043F60802C4F20102885043F60840C4F263
:10326000010000680A900B990A9888430A900E980A
:103270008079C006002805D5FFE70B990A98084316
:103280000A90FFE70A9843F60841C4F2010108607A
:1032900043F60C40C4F2010000680A900B990A98AA
:1032A00088430A900E9880798006002805D5FFE7AC
:1032B0000B990A9808430A90FFE70A9843F60C41D5
:1032C000C4F20101086043F60440C4F20100006842
:1032D0000A900B990A9888430A900E988079800783
:1032E000002805D5FFE70B990A9808430A90FFE7E5
:1032F0000A9843F60441C4F20101086043F6004015
:10330000C4F2010000680A900B990A9888430A9059
:103310000E988079C00728B1FFE70B990A980843F7
:103320000A90FFE70A9843F60041C4F201010860E1
:10333000FFE7FFE7FFE70D9801300D9013E610B0AF
:103340007047000082B00190ADF80210019800694A
:10335000BDF80210084204D0FFE701208DF80100FB
:1033600003E000208DF80100FFE79DF8010002B0A6
:103370007047000083B00290ADF8061002984069D3
:103380000090009ABDF8060002EA0001904340EA6E
:1033900001400299886103B07047000082B001903B
:1033A000ADF802108DF801209DF8010028B1FFE76B
:1033B000BDF802000199886105E0BDF80200000433
:1033C00001998861FFE702B07047000049F62810B4
:1033D000C2F201000068704740F25710C2F20000CC
:1033E000027849F62811C2F2010108681044086009
:1033F0007047000080B543F60041C4F2020108683E
:1034000040F400700860086840F480600860086854
:1034100040F480700860032001F02EF90F2000F0C6
:1034200005F801F0D5F8002080BD000080B582B01D
:10343000009040F24800C2F20000006840F25711CC
:10344000C2F200010A784FF47A71B1FBF2F1B0FBDD
:10345000F1F004F099FB20B1FFE701208DF807009F
:1034600018E000980F280DD8FFE700994FF0FF30C3
:10347000002201F0E7F8009840F25811C2F2000172
:10348000086003E001208DF8070003E000208DF8BC
:103490000700FFE79DF8070002B080BD81B00090F3
:1034A00001B07047B0B590B00E900D91002004901F
:1034B0000E99032081F834000E980D9905F086FBD3
:1034C00005900598002840F0A780FFE70D98B0F51B
:1034D000805F0AD1FFE70E98006840F20021C0F239
:1034E000B73108F095FD059020E00D98B0F5006F1C
:1034F0000AD1FFE70E98006840F20011C0F2B73120
:1035000008F086FD059010E00D9848B9FFE70E9889
:1035100000680021C0F2B73108F07AFD059003E0A1
:103520004FF000600590FFE7FFE7FFE705980028F0
:1035300071D1FFE74FF6FF700C90FFE70E99086816
:10354000C96C090408F006FD0590059808B1FFE76D
:103550001BE00E980068002108F082FB04900C9894
:1035600001380C90FFE700209DF81110C907039067
:1035700031B9FFE70C98002818BF01200390FFE73E
:103580000398C0070028D9D1FFE70C98C8B3FFE71C
:103590000598B0BBFFE79DF810000006002804D591
:1035A000FFE74FF4803005902AE0DDF838E0DEF8E0
:1035B0000400DEF80810DEF80C20DEF81030DEF82B
:1035C00014C0DEF818E0CDF82CE0CDF828C009933F
:1035D0000892079106900D9809900E980068069938
:1035E000079A089BDDF824C00A9C0B9DEE46CEF896
:1035F0000850CEF80440CEF800C008F045FBFFE7C5
:1036000008E00C9820B9FFE74FF00040059000E07B
:10361000FFE7FFE7FFE7FFE70E99012081F834009D
:10362000059880B1FFE70E98016840F2FF50C0F2A4
:1036300040008863059A0E99886B104388630120C7
:103640008DF83F0003E000208DF83F00FFE79DF874
:103650003F0010B0B0BD000081B0009001B07047D5
:1036600080B584B002900191002000900299096E0B
:10367000890F019A11700299096EC1F38361019A51
:1036800051700299096EC1F30161019A917002991A
:10369000B1F86210019AD1700299096E090A019A73
:1036A00011710299096E019A51710299496E090DC1
:1036B000019AD1800299496EC1F30341019A1172B6
:1036C0000299B1F86410C90B019A51720299496EBE
:1036D000C1F38031019A91720299496EC1F3403170
:1036E000019AD1720299496EC1F30031019A1173A6
:1036F000019948730299486E896E6FF39F2080008C
:1037000040EA9170019908610298806EC0F3C2602E
:10371000019908750298806EC0F30260019948759E
:103720000298806EC0F34250019988750298806EAD
:10373000C0F382400199C8750298806EC0F3C23010
:103740000199087602986946D4226FF0704305F01B
:10375000D9FA20B1FFE701208DF80F00C0E00298F0
:10376000406C18BBFFE701980069013002990865B9
:103770000198007E00F00700811C012000FA01F38F
:10378000029A116D594311650199097A01F00F01EF
:103790008840029948650299086D4A6D520A504363
:1037A000886502994FF40070C86526E00298406C65
:1037B00001280ED1FFE70098029908650299086D6B
:1037C000886502994FF4007048650299486DC86594
:1037D00012E00298016840F2FF50C0F24000886396
:1037E0000299886B40F0805088630299012081F82B
:1037F00034008DF80F0073E0FFE70298806EC0F38D
:103800008030019948760298806EC0F3C610019905
:1038100088760298806E00F07F000199C876029841
:10382000C06EC00F019908770298C06EC0F3417056
:10383000019948770298C06EC0F382600199887739
:103840000298C06EC0F383500199C8770298C06E89
:10385000C0F34050019981F820000199002081F8BF
:1038600021000299C96EC1F30041019A82F8221029
:103870000299B1F86C10C90B019A82F823100299D1
:10388000C96EC1F38031019A82F824100299C96E81
:10389000C1F34031019A82F825100299C96EC1F333
:1038A0000031019A82F826100299C96EC1F3812174
:1038B000019A82F827100299C96EC1F30121019A79
:1038C00082F82810029991F86C104908019A82F840
:1038D0002910019A012182F82A108DF80F00FFE7C4
:1038E0009DF80F0004B080BD80B590B00E900D9192
:1038F0000C92FFF76BFD04900D9848B9FFE70E9905
:10390000886B40F00060886301208DF83F00E5E09F
:103910000E9890F83400012840F0DC80FFE70E9903
:103920000020019088630E9A032182F834100E99CA
:103930000968C8620D9902914FF0FF3106914FF46A
:103940000071079190210891022109910A900120AC
:103950000B900E98006806A908F04EF901990E9890
:10396000006808F0D9FA0590059898B1FFE70E981D
:10397000016840F2FF50C0F240008863059A0E993A
:10398000886B104388630E99012081F834008DF80C
:103990003F00A3E0FFE70E980068406B10F4957FAE
:1039A0003DD1FFE70E980068406B0004002816D553
:1039B000FFE700200390FFE7039807280ED8FFE7F2
:1039C0000E98006808F096F9029908600298043091
:1039D0000290FFE7039801300390EDE7FFE7FFF760
:1039E000F5FC0499401A0C99884203D2FFE70C9821
:1039F000A0B9FFE70E98016840F2FF50C0F2400006
:103A000088630E99886B40F0004088630E9901200E
:103A100081F8340003208DF83F005FE0BBE70E988B
:103A20000068406B0007002813D5FFE70E98016877
:103A300040F2FF50C0F2400088630E99886B40F05E
:103A4000080088630E99012081F834008DF83F004A
:103A500044E00E980068406B8007002813D5FFE70C
:103A60000E98016840F2FF50C0F2400088630E9942
:103A7000886B40F0020088630E99012081F83400C1
:103A80008DF83F002AE00E980068406B8006002801
:103A900013D5FFE70E98016840F2FF50C0F24000D6
:103AA00088630E99886B40F0200088630E9901208E
:103AB00081F834008DF83F0010E0FFE7FFE7FFE7F3
:103AC0000E98016840F23A5088630E99012081F8FF
:103AD0003400FFE700208DF83F00FFE79DF83F002E
:103AE00010B080BD82B0019000910198406C0099A7
:103AF00008600198806C009948600198C06C00993A
:103B000088600198006D0099C8600198406D009927
:103B100008610198806D009948610198C06D009915
:103B20008861002002B0704780B584B00390002007
:103B300000900398694605F0E1F90190019830B1D1
:103B4000FFE7019A0399886B10438863FFE70098A9
:103B5000C0F343200290029804B080BD81B0009071
:103B6000009890F8340001B07047000080B584B030
:103B700003900398006B019003980068406B81B23A
:103B80000020B0EBD13F0AD0FFE79DF8040000070A
:103B9000002804D5FFE7039805F062F970E1039867
:103BA0000068406B00F480710020B0EB112F00F032
:103BB0008F80FFE7039801684FF480708863039853
:103BC0000168C86B40F23A329043C86303980168B9
:103BD000C86A20F00100C8629DF8040000060028B1
:103BE00032D5FFE79DF804008006002812D5FFE7D4
:103BF0000398006808F0EEF90290029848B1FFE7D8
:103C0000029A0399886B104388630398FFF724FD99
:103C1000FFE7FFE79DF80400C007A0B9FFE79DF8A4
:103C20000400800700280ED4FFE703980168C86AE3
:103C300020F00800C8620399012081F8340003983D
:103C400000F0D6FBFFE742E09DF8040000070028E3
:103C50003BD5FFE79DF804008007002806D4FFE766
:103C60009DF804008006002812D5FFE7039800683D
:103C700008F0B0F90290029848B1FFE7029A039960
:103C8000886B104388630398FFF7E6FCFFE7FFE7C4
:103C90000398016840F23A5088630399012081F843
:103CA00034009DF80400C00730B9FFE79DF8040018
:103CB0008007002804D5FFE7039800F095FB03E098
:103CC000039800F095FBFFE700E0FFE7FFE7D6E091
:103CD00003980068406B00F480410020B0EB913FF6
:103CE0000AD0FFE79DF804000007002804D5FFE78D
:103CF000039805F02BF9C1E003980068406B40F28F
:103D00003A21084200F0B880FFE703980068406B52
:103D100000F002010020B0EB510F06D0FFE703993D
:103D2000886B40F002008863FFE703980068406BEF
:103D300000F008010020B0EBD10F06D0FFE7039997
:103D4000886B40F008008863FFE703980068406BC9
:103D500000F020010020B0EB511F06D0FFE70399CF
:103D6000886B40F020008863FFE703980068406B91
:103D700000F010010020B0EB111F06D0FFE70399FF
:103D8000886B40F010008863FFE703980068406B81
:103D900000F400710020B0EB512F06D0FFE703992B
:103DA000886B40F008008863FFE70398016840F2E1
:103DB0003A70886303980168C86B40F23A329043C6
:103DC000C8630398006808F005F902460399886BF8
:103DD000104388639DF804000007002808D5FFE71A
:103DE0000399012081F834000398FFF735FC42E085
:103DF0009DF80400000600283BD5FFE70398006CFF
:103E000098B1FFE70398016C48F6C100C0F60000C6
:103E100008650398006CFEF771FD28B1FFE7039871
:103E2000006C04F04DFDFFE722E00398C06B98B1F1
:103E3000FFE70398C16B48F62900C0F6000008654B
:103E40000398C06BFEF75AFD28B1FFE70398C06BDB
:103E500004F0EAFCFFE70AE0039900208863039975
:103E6000012081F834000398FFF718FBFFE7FFE714
:103E700000E0FFE7FFE700E0FFE7FFE7FFE7FFE71E
:103E800004B080BD80B582B00090009820B9FFE7F3
:103E900001208DF8070035E0009890F8340038B91B
:103EA000FFE7009900200877009800F0C1F8FFE7CD
:103EB0000099032081F83400009800F027F80128C9
:103EC00004D1FFE701208DF807001BE000990020D6
:103ED0008863009908630099012081F834000098F4
:103EE000006958B1FFE700980169FFF7DBFA20B1DC
:103EF000FFE701208DF8070004E0FFE700208DF8C0
:103F00000700FFE79DF8070002B080BDB0B58EB096
:103F10000C9000200590069007900890099076205C
:103F20000A900C9800680599069A079BDDF820C056
:103F3000099C0A9DEE46CEF80850CEF80440CEF813
:103F400000C007F0A1FE8DF813009DF813000128B2
:103F500004D1FFE701208DF8370064E048F2A001AA
:103F6000C4F22521002008600C98006807F0BAFE12
:103F70008DF813009DF81300012804D1FFE70120FC
:103F80008DF837004FE048F2A001C4F2252101204E
:103F900008600220FEF784FF0C9804F0C1FD0B902E
:103FA0000B9860B1FFE70C99012081F834000B9B5E
:103FB0000C9A916B194391638DF8370033E00C989C
:103FC00004F0BCFC0B900B9860B1FFE70C9901204A
:103FD00081F834000B9B0C9A916B194391638DF817
:103FE000370020E00C9800684FF4007107F0B8FE2D
:103FF0000B900B9898B1FFE70C98016840F2FF50C6
:10400000C0F2400088630B9A0C99886B1043886358
:104010000C99012081F834008DF8370003E000206E
:104020008DF83700FFE79DF837000EB0B0BD0000F7
:1040300080B592B01190002010900F900E900D90CE
:104040000C901198006842F60041C4F201018842C8
:1040500040F0DF80FFE7FFE700200B9043F64400CD
:10406000C4F20200016841F400610160006800F4DC
:1040700000600B900B98FFE7FFE700200A9043F6E3
:104080003000C4F20200016841F0040101600068E0
:1040900000F004000A900A98FFE7FFE7002009906B
:1040A00043F63000C4F20200016841F008010160EB
:1040B000006800F0080009900998FFE74FF4F850F5
:1040C0000C90022002900D90012003900E9003208E
:1040D00007900F900C200490109040F60000C4F25E
:1040E00002000CA90591FEF735FFDDF808C0039B1F
:1040F00004980599079A4FF0040ECDF818E0CDF812
:1041000030E0CDF834C00E930F92109040F600408E
:10411000C4F20200FEF71EFF069A079948F6D43053
:10412000C2F20100089046F25843C4F20203036051
:104130004FF000634360402383600023C3604FF46B
:10414000806303614FF4805343614FF48043836184
:104150002023C3614FF400330362426281624FF453
:104160000001C1624FF400110163FEF77FFD18B139
:10417000FFE7FEF705F9FFE7FFE7119848F6D431AE
:10418000C2F20101016411988863FFE748F67430B8
:10419000C2F20100019046F2A041C4F202010160A6
:1041A0004FF00061416000218160C1604FF4806187
:1041B00001614FF4805141614FF4804181612021C0
:1041C000C1614FF400310162042141620321816227
:1041D0004FF40001C1624FF400110163FEF746FD88
:1041E00018B1FFE7FEF7CCF8FFE7FFE7119848F6B4
:1041F0007431C2F20101C16311988863FFE7312075
:1042000000900521002200F01DFA009800F010FA3D
:10421000FFE712B080BD000080B58EB00C900B910E
:104220000A9209930A9801900B9848B9FFE70C99F4
:10423000886B40F00060886301208DF83700CEE085
:104240000C9890F83400012840F0C580FFE70C99E5
:10425000002088630A98099908440C99896D88425E
:1042600009D9FFE70C99886B40F000708863012042
:104270008DF83700B3E00C99032081F834000C98D6
:1042800001680020C8620C990A68D16B40F22A3399
:104290001943D1630C99CA6B48F2C571C0F600018D
:1042A000D1630C99CA6B48F22571C0F60001D16444
:1042B0000C99C96B08650C98406C012804D0FFE785
:1042C000019840020190FFE70C98C16B00208860C4
:1042D0000C98C06B0068006820F0C0000C99CA6B95
:1042E00011689268104308600C980168C06B8031B7
:1042F0000B9ADDF824C04FF68073C3F6FF7303EA10
:10430000CC13FEF76BFDC0B1FFE70C980168C86BDA
:1043100020F49570C8630C98016840F2FF50C0F219
:10432000400088630C994FF0804088630C9901200D
:1043300081F834008DF8370051E048F28C51C4F216
:104340002521012008604FF0FF31039109994902AE
:104350000491902105910221069100210791089076
:104360000C98006803A907F047FC099802280AD3B3
:10437000FFE70C99822008630C980068019907F008
:104380003DFD029009E00C99812008630C980068BB
:10439000019907F051FD0290FFE70298B8B1FFE7DD
:1043A0000C98016840F2FF50C0F2400088630C98FE
:1043B0000168C86B20F49570C86302980C998863F3
:1043C0000C99012081F834008DF8370007E00020B7
:1043D0008DF8370003E002208DF83700FFE79DF8E5
:1043E00037000EB080BD000081B0009001B0704772
:1043F00081B0009001B0704780B58EB00C900B91E9
:104400000A9209930A9801900B9848B9FFE70C9912
:10441000886B40F00060886301208DF83700D2E09F
:104420000C9890F83400012840F0C980FFE70C99FF
:10443000002088630A98099908440C99896D88427C
:1044400009D9FFE70C99886B40F000708863012060
:104450008DF83700B7E00C99032081F834000C98F0
:1044600001680020C8620C990A68D16B40F21A23D7
:104470001943D1630C990A6C48F6A501C0F60001F6
:10448000D1630C990A6C48F22571C0F60001D16421
:104490000C99096C08650C98406C012804D0FFE762
:1044A000019840020190FFE7099802280AD3FFE72C
:1044B0000C99A02008630C980068019907F0C6FDCC
:1044C000029009E00C99902008630C98006801990B
:1044D00007F0DAFD0290FFE70298C8B1FFE70C98F9
:1044E000016840F2FF50C0F2400088630C980168F8
:1044F000C86B20F48D70C863029A0C99886B1043C6
:1045000088630C99012081F834008DF837005AE057
:1045100048F28C51C4F22521012008600C98016CEE
:10452000402088600C98006C0068006820F0C00093
:104530000C990A6C11689268104308600C98026824
:10454000006C0B998032DDF824C04FF68073C3F6FF
:10455000FF7303EACC13FEF741FCC8B1FFE70C98E8
:104560000168C86B20F48D70C8630C98016840F234
:10457000FF50C0F2400088630C99886B40F0804087
:1045800088630C99012081F834008DF837001AE017
:104590004FF0FF300390099840020490902005905E
:1045A0000020009006900790012008900C98006869
:1045B00003A907F021FB00988DF8370003E00220E3
:1045C0008DF83700FFE79DF837000EB080BD000082
:1045D00082B0FFE70020019043F64400C4F20200DD
:1045E000016841F480410160006800F4804001905E
:1045F0000198FFE7FFE70020009043F64000C4F277
:104600000200016841F080510160006800F08050B4
:1046100000900098FFE702B07047000080B582B0BC
:104620008DF807009DF907000CF074FA02B080BD08
:1046300080B582B08DF807009DF907000CF086FA6E
:1046400002B080BD80B586B08DF81700049103924A
:10465000002002900CF092FA02909DF91700019050
:1046600002980499039A05F017FB014601980CF093
:104670008DFA06B080BD000080B582B0019001982F
:104680000CF0A6FA02B080BD82B001908DF8031044
:1046900002B0704782B00190ADF80210BDF8020080
:1046A000019909684862002002B0704784B0039005
:1046B0008DF80B10ADF8082003980068406A009050
:1046C0009DF80B0048B9FFE7BDF80810009840EAD4
:1046D000014003990968886233E003980068816AA1
:1046E000009800EB1140009000208DF80700FFE7D4
:1046F0009DF807009DF80B100139884213D2FFE79F
:10470000039800689DF8071000EB8100D0F80411B1
:10471000009800EB11400090FFE79DF80700013082
:104720008DF80700E4E7BDF80810009840EA014062
:10473000039909689DF80B2001EB8201C1F8000183
:10474000FFE7002004B0704780B582B00190019867
:10475000D0F8E00409F0A2FB02B080BD80B582B0C1
:1047600001908DF80310019AD2F8E0049DF803102F
:1047700001EBC10302EB8302126A09F0EDF902B00A
:1047800080BD000080B582B001908DF80310019AC1
:10479000D2F8E0049DF8031001EBC10302EB8302A1
:1047A000D2F8602209F0A0FA02B080BD80B582B0D4
:1047B00001900198D0F8E00409F076FB02B080BDCA
:1047C00080B584B003908DF80B109DF80B000006A7
:1047D00000280CD5FFE703989DF80B1001F00F019E
:1047E00001EBC10100EB8100143001900CE0039853
:1047F0009DF80B1001F00F0101EBC10100EB8100EE
:1048000000F515700190FFE70398006801990BF01F
:1048100099FB8DF80A009DF80A0004B080BD0000E5
:1048200080B584B002908DF807109DF8070000064F
:1048300000280FD5FFE702989DF8071001F00F013F
:1048400001EBC10100EB81001430009000990120C0
:1048500048700FE002989DF8071001F00F0101EB7E
:10486000C10100EB810000F5157000900099002057
:104870004870FFE79DF8070000F00F0000990870EE
:10488000FFE7029890F89404012804D1FFE7022082
:104890008DF80F0014E00299012081F89404FFE7DD
:1048A000FFE70298006800990AF03CFEFFE70299D2
:1048B000002081F89404FFE700208DF80F00FFE747
:1048C0009DF80F0004B080BD80B584B002908DF8D3
:1048D00007109DF8070000F00F000299097988423F
:1048E00004D9FFE701208DF80F004DE09DF8070087
:1048F000000600280FD5FFE702989DF8071001F089
:104900000F0101EBC10100EB810014300090009910
:10491000012048700FE002989DF8071001F00F0188
:1049200001EBC10100EB810000F5157000900099CA
:1049300000204870FFE70099002088709DF807006C
:1049400000F00F0000990870FFE7029890F89404B7
:10495000012804D1FFE702208DF80F0014E002992E
:10496000012081F89404FFE7FFE7029800680099AE
:104970000BF048F8FFE70299002081F89404FFE764
:1049800000208DF80F00FFE79DF80F0004B080BDF8
:1049900080B584B002908DF80710FFE7029890F878
:1049A0009404012804D1FFE702208DF80F0023E0D2
:1049B0000299012081F89404FFE7FFE79DF80700C2
:1049C0000006002809D5FFE7029800689DF8071047
:1049D00001F00F010BF088FB04E0029800680BF077
:1049E00049FBFFE7FFE70299002081F89404FFE705
:1049F00000208DF80F00FFE79DF80F0004B080BD88
:104A000082B001908DF8031001989DF8031001F019
:104A10000F0101EBC10100EB8100D0F8680202B088
:104A20007047000080B586B004908DF80F10ADF887
:104A30000C208DF80B3000208DF80A009DF80F0037
:104A4000000600280FD5FFE704989DF80F1001F02D
:104A50000F0101EBC10100EB8100143001900199BD
:104A6000012048700FE004989DF80F1001F00F012D
:104A700001EBC10100EB810000F515700190019977
:104A800000204870FFE79DF80F0000F00F0001992B
:104A90000870BDF80C006FF3DF20019988609DF865
:104AA0000B00019908710198407820B1FFE7019946
:104AB00008784883FFE79DF80B00022804D1FFE740
:104AC000019900204871FFE7FFE7049890F89404EB
:104AD000012804D1FFE702208DF8170015E00499A2
:104AE000012081F89404FFE7FFE70498006801992A
:104AF0000AF0EAFBFFE70499002081F89404FFE73D
:104B00009DF80A008DF81700FFE79DF8170006B022
:104B100080BD000080B586B005908DF8131003921B
:104B2000029305989DF8131001F00F0101EBC101EC
:104B300000EB810000F51570019003980199C860A1
:104B40000298019908610199002048610199487013
:104B50009DF8130000F00F00019908700598807906
:104B6000012804D1FFE703980199C861FFE7059A7E
:104B70001068019992790AF0E9FF002006B080BD23
:104B800080B584B002908DF807109DF8070000F002
:104B90000F0002990979884204D9FFE701208DF8B6
:104BA0000F0058E09DF80700000600280FD5FFE72A
:104BB00002989DF8071001F00F0101EBC10100EB15
:104BC0008100143000900099012048700DE0029897
:104BD0009DF8071001EBC10100EB810000F5157095
:104BE0000090009900204870FFE70099012088702C
:104BF0009DF8070000F00F0000990870FFE7029889
:104C000090F89404012804D1FFE702208DF80F00EA
:104C100021E00299012081F89404FFE7FFE7029860
:104C2000006800990AF03EFF9DF80700000740B9B0
:104C3000FFE7029A1068917902F29C420AF092FE14
:104C4000FFE7FFE70299002081F89404FFE70020C6
:104C50008DF80F00FFE79DF80F0004B080BD000045
:104C600080B586B005908DF81310039202930598D5
:104C70009DF8131001F00F0101EBC10100EB810061
:104C80001430019003980199C86002980199086155
:104C90000199002048610199012048709DF8130096
:104CA00000F00F000199087005988079012804D15F
:104CB000FFE703980199C861FFE7059A1068019919
:104CC00092790AF043FF002006B080BD80B58CB019
:104CD0000B900B9800680A900A9809900B9800684E
:104CE0000BF066FA002840F00B84FFE70B98006891
:104CF0000BF0CAFA10B9FFE700F002BC0998D0F82F
:104D00000808C0F30D200B99C1F8D4040B98006873
:104D10000BF0BAFA8007002807D5FFE70B98016867
:104D2000486900F002004861FFE70B9800680BF04B
:104D3000ABFAC006002862D5FFE70B9801688869C6
:104D400020F0100088610A98006A02900B9802997E
:104D500001F00F0101EBC10100EB810000F51570BE
:104D60000890029800F4F0110220B0EB514F23D1CB
:104D7000FFE7BDF8080047F6F07108421BD0FFE7D7
:104D80000A980899C968029AC2F30A120BF08AFAC3
:104D9000029847F6F07100EA0103089AD06800EB28
:104DA0001310D060029800EA01020899486900EBEC
:104DB00012104861FFE71BE0029800F4F011062092
:104DC000B0EB514F12D1FFE70A980B9901F29C41C9
:104DD00008220BF067FA029847F6F07100EA010228
:104DE0000899486900EB1210486100E0FFE7FFE70F
:104DF0000B980168886940F010008861FFE70B9804
:104E000000680BF041FA0003002840F1A680FFE79C
:104E1000002004900B9800680BF0E4F90690FFE77F
:104E20000698002800F09880FFE79DF81800C0075A
:104E3000002800F08A80FFE70B9800689DF81010AA
:104E40000BF00AFA05909DF81400C00760B1FFE767
:104E50000998049900EB41110120C1F8080B0B9847
:104E6000049904F09DFFFFE79DF814000007002857
:104E70000CD5FFE70998049900EB41110820C1F80F
:104E8000080B0B98049904F045FFFFE79DF8140008
:104E9000C006002808D5FFE70998049900EB4111E6
:104EA0001020C1F8080BFFE79DF8140080070028C8
:104EB0002DD5FFE70A9840690006002808D5FFE7CE
:104EC0000999D1F8040840F48060C1F80408FFE7AC
:104ED0000B98049901EBC10100EB810000F51570FE
:104EE00008900898C078012809D1FFE708990020A8
:104EF000C8700B989DF8101000F012FBFFE709989E
:104F0000049900EB41110220C1F8080BFFE79DF85E
:104F100014008006002808D5FFE70998049900EBE3
:104F200041112020C1F8080BFFE79DF8150080060D
:104F3000002809D5FFE70998049900EB41114FF4C7
:104F40000050C1F8080BFFE7FFE704980130049018
:104F500006984008069063E7FFE70B9800680BF09F
:104F600093F94003002840F1C680FFE70B980068E2
:104F70000BF026F9069000200490FFE70698002821
:104F800000F0B880FFE79DF81800C007002800F087
:104F9000AA80FFE70B9800689DF810100BF034F919
:104FA00005909DF81400C00700283ED0FFE7049844
:104FB00000F00F01012000FA01F10391039B099A0F
:104FC000D2F834189943C2F834180999049A01EBBD
:104FD0004211C1F808090B98807901281FD1FFE719
:104FE0000B98049901EBC10100EB8101CA69086AC1
:104FF00010440862049888B9FFE70B98049901EB04
:10500000C10100EB8100406A40B9FFE70B990868D5
:1050100001F29C4201210AF0A5FCFFE7FFE70B9893
:105020009DF81010FFF79AFBFFE79DF814000007AA
:10503000002808D5FFE70998049900EB41110820E2
:10504000C1F80809FFE79DF81400C006002808D53C
:10505000FFE70998049900EB41111020C1F80809F5
:10506000FFE79DF814004006002808D5FFE70998DF
:10507000049900EB41114020C1F80809FFE79DF8B1
:1050800014008007002822D5FFE70A9804990BF046
:105090002BF80B98049901EBC10100EB810014304F
:1050A00008900898C078012809D1FFE708990020E6
:1050B000C8700B989DF8101000F024FAFFE70998CB
:1050C000049900EB41110220C1F80809FFE79DF89F
:1050D00014000006002805D5FFE70B98049904F09A
:1050E00043FFFFE7FFE7049801300490069840086B
:1050F000069043E7FFE70B9800680BF0C5F8C00F78
:1051000000B3FFE70999D1F8040820F00100C1F8C5
:1051100004080B9890F8CC04012808D1FFE70B98FD
:10512000002180F8CC140B98FFF7AEFA03E00B983F
:1051300000F002FCFFE70B980168486900F00040AE
:105140004861FFE70B9800680BF09EF80005002807
:1051500011D5FFE70998D0F80808C00720B1FFE78C
:105160000B9800F075FCFFE70B980168486900F4A4
:1051700000604861FFE70B9800680BF085F8C004F9
:10518000002840F18680FFE70999D1F8040820F053
:105190000100C1F804080B98006810210AF0A4FF70
:1051A00000200790FFE707980B990979884231D2D0
:1051B000FFE70998079900EB41114FF67F30C1F8DE
:1051C00008090999079A01EB4212D2F8001921F453
:1051D0000011C2F800190999079A01EB4211C1F8B0
:1051E000080B0998079900EB4111D1F8000B20F446
:1051F0000010C1F8000B0998079900EB4111D1F894
:10520000000B40F00060C1F8000BFFE70798013089
:105210000790C8E70999D1F81C0840F00110C1F8BF
:105220001C080B98C07B78B1FFE70999D1F8840876
:1052300040F00B00C1F884080999D1F8440840F007
:105240000B00C1F844080FE00999D1F8140842F2A4
:105250002B021043C1F814080999D1F8100840F046
:105260000B00C1F81008FFE70999D1F8000820F4F5
:10527000FE60C1F800080B9A1068917902F29C4216
:105280000AF070FB0B980168486900F4805048618F
:10529000FFE70B9800680AF0F7FF800400281FD58D
:1052A000FFE70B9800680AF07FF80B9800680AF097
:1052B00059FF0B99C8710B980068019000F088FFA6
:1052C000014601980B9AD2790BF0E4F80B9800F0A4
:1052D00009FB0B980168486900F400504861FFE73A
:1052E0000B9800680AF0D0FF000700280AD5FFE7F6
:1052F0000B9800F02BFB0B980168486900F0080040
:105300004861FFE70B9800680AF0BEFF000600281E
:1053100025D5FFE70A99886920F08000886101207F
:105320000490FFE704980B990979884216D2FFE7A9
:105330000B98049901EBC10100EB810090F8570232
:10534000012806D1FFE70B989DF81010FFF738FAF7
:10535000FFE7FFE7049801300490E3E7FFE70B98CD
:1053600000680AF091FFC00200283CD5FFE7012049
:105370000490FFE704980B99097988422CD2FFE743
:105380000998049900EB4110D0F8000902900B989D
:10539000049901EBC10100EB8100007E012816D1C8
:1053A000FFE79DF80B000006002810D5FFE70B98DB
:1053B000049901EBC10100EB81010120C8750B9834
:1053C0009DF8101041F08001FFF7FAF9FFE7FFE7C1
:1053D000049801300490CDE70B980168486900F407
:1053E00080104861FFE70B9800680AF04DFF8002CB
:1053F000002855D5FFE701200490FFE704980B999A
:105400000979884245D2FFE70998049900EB4110D9
:10541000D0F8000B02900B98049901EBC10100EB4E
:10542000810090F8580201282ED1FFE79DF80B006B
:105430000006002828D5FFE7029800F480300B9979
:10544000D1F8D41401F0010188421DD1FFE70B9877
:10545000049901EBC10100EB8101012081F85702A1
:105460000A99886940F0800088610A9840690006BE
:10547000002808D4FFE70999D1F8040840F4007027
:10548000C1F8040805E0FFE7FFE704980130049045
:10549000B4E70B980168486900F400104861FFE721
:1054A0000B9800680AF0F0FE400000280AD5FFE7DC
:1054B0000B98FFF749F90B980168486900F08040A4
:1054C0004861FFE70B9800680AF0DEFE40070028FD
:1054D00015D5FFE70B980068406802909DF808001A
:1054E0004007002804D5FFE70B98FFF75FF9FFE7B7
:1054F000029A0B980168486810434860FFE7FFE78D
:105500000CB080BD80B582B001908DF80310019879
:10551000D0F8E0049DF8031008F084FD02B080BDCF
:1055200080B582B001908DF803100198D0F8E004A6
:105530009DF8031008F0AEFD02B080BD80B58EB0BE
:105540000C900C9820B9FFE701208DF8370012E18C
:105550000C9800680B900C9890F8950440B9FFE700
:105560000C99002081F894040C9800F009F9FFE7E9
:105570000C99032081F895040B98B0F1A04F04D149
:10558000FFE70C9900208871FFE70C9800680AF08B
:10559000DFF90C9B1868197C8DF8241059689A68FB
:1055A000DB680893079206910699079A089BDDF835
:1055B00024C0EE46CEF800C009F00CFF40B1FFE772
:1055C0000C99022081F8950401208DF83700D2E073
:1055D0000C98006800210AF0BFFE40B1FFE70C996B
:1055E000022081F8950401208DF83700C3E00020E7
:1055F0008DF82B00FFE79DF82B000C990979884264
:1056000041DAFFE70C989DF82B1001EBC10100EB8C
:105610008101012048759DF82B000C9900EBC00218
:1056200001EB820108759DF82B000C9900EBC0027C
:1056300001EB8201C8850C989DF82B1001EBC1018C
:1056400000EB8101002008760C999DF82B2002EBDD
:10565000C20201EB8201C8610C999DF82B2002EB7C
:10566000C20201EB820108620C999DF82B2002EB2B
:10567000C20201EB82014862FFE79DF82B00013076
:105680008DF82B00B7E700208DF82B00FFE79DF881
:105690002B000C99097988423EDAFFE70C989DF8B7
:1056A0002B1001EBC10100EB8101002081F85502B4
:1056B0009DF82B100C9A01EBC10302EB830282F8D8
:1056C00054120C999DF82B2002EBC20201EB8201CF
:1056D00081F858020C999DF82B2002EBC20201EBD5
:1056E0008201C1F85C020C999DF82B2002EBC202EA
:1056F00001EB8201C1F860020C999DF82B2002EBAE
:10570000C20201EB8201C1F86402FFE79DF82B00A1
:1057100001308DF82B00BAE70C9B1868197C8DF8C6
:10572000141059689A68DB680493039202910299F5
:10573000039A049BDDF814C0EE46CEF800C009F0D1
:10574000B9FF40B1FFE70C99022081F895040120D0
:105750008DF837000FE00C990020019048740C99E7
:10576000012081F895040C98006809F08DFF0198DC
:105770008DF83700FFE79DF837000EB080BD0000C0
:1057800080B592B01190002010900F900E900D9067
:105790000C90119800680021C4F20401884240F086
:1057A0009F80FFE7FFE700200B9043F63000C4F234
:1057B0000200016841F004010160006800F004008B
:1057C0000B900B98FFE7FFE700200A9043F63000AC
:1057D000C4F20200016841F001010160006800F0BC
:1057E00001000A900A98FFE7FFE70020099043F6BE
:1057F0003000C4F20200016841F00201016000685B
:1058000000F0020009900998FFE70D200C9002209B
:1058100002900D90002003900E90032004900F90B2
:105820000A200590109040F60000C4F202000CA976
:105830000691FDF78FFBDDF808C0039B049A0598DD
:1058400006994FF0280ECDF830E0CDF834C00E9315
:105850000F9210900020C4F20200FDF77BFBDDF8F0
:1058600008C0039B049A0598069943F6234ECDF889
:1058700030E0CDF834C00E930F92109040F200400B
:10588000C4F20200FDF766FBFFE70020089043F634
:105890003000C4F20200016841F00051016000686C
:1058A00000F0005008900898FFE7FFE700200790FD
:1058B00043F63000C4F20200016841F0804101600B
:1058C000006800F0804007900798FFE74D200190A6
:1058D00007210022FEF7B6FE0198FEF7A9FEFFE7BA
:1058E00012B080BD80B582B0019001208DF8030018
:1058F0000198C07920B9FFE700208DF803000CE083
:105900000198C079022804D1FFE701208DF8030037
:1059100002E0FCF735FDFFE7FFE70198D0F8E0046F
:105920009DF8031008F0B6FC0198D0F8E00408F0E8
:1059300031FC02B080BD000080B582B001900198BA
:10594000D0F8E00408F074FC02B080BD80B582B0ED
:1059500001900198D0F8E00408F07CFC02B080BD12
:1059600080B584B002908DF80710FFE7029890F898
:105970009404012804D1FFE702208DF80F0019E0FC
:105980000299012081F89404FFE7FFE79DF80700E2
:1059900002994874029800689DF807100AF04CFDBF
:1059A000FFE70299002081F89404FFE700208DF8BA
:1059B0000F00FFE79DF80F0004B080BD80B582B0F6
:1059C00001900199D1F8E00401F29C4108F08CFCAF
:1059D00002B080BD80B584B002900298006801904A
:1059E000FFE7029890F89404012804D1FFE7022011
:1059F0008DF80F0028E00299012081F89404FFE758
:105A0000FFE70198C068400600280BD5FFE7029821
:105A1000407B012806D1FFE70199886B40F4803074
:105A20008863FFE7029800680AF01AFB0298006892
:105A300009F014FEFFE70299002081F89404FFE7C3
:105A400000208DF80F00FFE79DF80F0004B080BD27
:105A500080B582B001900198D0F8E00408F0C6FC4F
:105A600001980168D1F8000E40F00100C1F8000E65
:105A70000198C07A48B1FFE74EF61051CEF200010E
:105A8000086840F006000860FFE702B080BD000033
:105A900080B584B000200290FFE70020019043F61B
:105AA0004000C4F20200016841F0805101600068CA
:105AB00000F0805001900198FFE74021C4F20E21D0
:105AC00001200860FDF782FC0290FFE747F2040026
:105AD000C4F20000006800F48030B0F5803F0DD0C3
